:100000000C941C020C9463020C9463020C94630223
:100010000C9463020C9463020C9463020C946302CC
:100020000C9463020C9463020C949A1C0C946D1D46
:100030000C94AF130C9463020C9463020C9463024F
:100040000C9463020C9463020C9463020C9463029C
:100050000C9463020C9410140C9463020C946302CD
:100060000C9463020C9463020C9463020C9463027C
:100070000C9463020C9463020C9463020C9463026C
:100080000C9463020C9463020C9463020C9463025C
:100090000C9463020C9463020C9463020C9463024C
:1000A0000C9463020C9463020C9463022B002900ED
:1000B0003A033B033C0300003D033E033F030000C3
:1000C00040034103420343034403010001000100D4
:1000D000010001000000010001000100000001001A
:1000E0000100010001000100010001000100010008
:1000F00001000000010001000100000001000100FA
:1001000001000100010001000100010001000100E7
:1001100000000100010001000000010001000100D9
:1001200001000100010001000100010001000000C8
:1001300001000100010000000100010001000100B8
:1001400001000100010001000100010000000100A8
:100150000100010000000100010001000100010098
:100160000100010001000100010000000100010088
:100170000100000001000100010001000100010078
:100180000100010001000100000001000100010068
:100190000000010001000100010001000100010058
:1001A0000100010001000000010001000100000049
:1001B0000100010001000100010001000100010037
:1001C0000100010000000100010001000000010029
:1001D0000100010001000100010001000100010017
:1001E0000100000001000100010000000100010009
:1001F00001000100010001000100010001000100F7
:1002000000000100010001000000010001000100E8
:1002100001000100010001000100010001000000D7
:1002200001000100010000000100010001000100C7
:1002300001000100010001000100010000000100B7
:1002400001000100000001000100010001000100A7
:100250000100010001000100010000000100010097
:100260000100000001000100010001000100010087
:100270000100010001000100000001000100010077
:1002800000000100010001000100010012036B00E9
:100290006500790062006F00610072006400000078
:1002A000160371006D006B006200750069006C0040
:1002B00064006500720000000403090409026D0077
:1002C000040100A0FA090400000103010100092152
:1002D000110100012240000705810308000A0904FA
:1002E00001000103010200092111010001224D005A
:1002F0000705820308000A09040200010300000048
:100300000921110100012236000705830308000AB4
:10031000090403000103000000092111010001226A
:1003200039000705840320000112011001000000BC
:1003300008EDFE606001000102000105010906A14F
:1003400001050719E029E7150025019508750181C8
:100350000205081901290595057501910295017598
:100360000391010507190029F71500250195F87576
:10037000018102C005010980A10185021601002644
:1003800003001A81002A8300751095018100C005C1
:100390000C0901A1018503160100269C021A010027
:1003A0002A9C02751095018100C005010902A10176
:1003B0000901A10005091901290515002501950567
:1003C000750181029501750381010501093009312B
:1003D0001581257F95027508810609381581257FCD
:1003E000950175088106050C0A38021581257F954F
:1003F0000175088106C0C005010906A1010507199C
:10040000E029E71500250195087501810295017520
:1004100008810105081901290595057501910295C5
:1004200001750391010507190029FF150026FF003A
:10043000950675088100C00011241FBECFEFDAE0D9
:10044000DEBFCDBF04B603FE27C0809105029091A8
:100450000602A0910702B09108028730904BA74096
:10046000B04BD1F4109205021092060210920702CE
:100470001092080214BE84B7877F84BF0FB6F89429
:10048000A895809160008861809360001092600060
:100490000FBEE0E0F8E3099511E0A0E0B1E0E4EB85
:1004A000F1E402C005900D92A033B107D9F722E024
:1004B000A0E3B1E001C01D92A530B207E1F70E94B0
:1004C000F0190C94AC200C94000090E080E00895AA
:1004D0000895089581E00895089581E008950C94A9
:1004E0006A020E94FF0B2FEF84E39CE021508040C2
:1004F0009040E1F700C000000C943314EF92FF929B
:100500000F931F93CF93DF938C01FC01E080F18068
:1005100080915501811140C082818823C1F1C701BA
:100520000E948611C82F682FC7010E942D11B701A4
:100530008C2F0E94B603EC01B8010E946F02882341
:1005400009F44BC0B801CE010E94BF05882309F40D
:1005500044C0C531F0E7DF0720F5C23080E7D80797
:1005600008F04DC0C115E0E7DE0791F1C130D0477A
:10057000E1F181E08093320180933301C801DF9182
:10058000CF911F910F91FF90EF900C946D02C701D6
:100590000E945C11C82FCBCFC7010E948611B70102
:1005A000C8CFCC3380E7D80709F49BC0CD33D04700
:1005B00001F7F8018281882309F4BAC0109233014F
:1005C0000E94DF13909331018093300180E296C046
:1005D000F801828181110E94710280E0DF91CF9148
:1005E0001F910F91FF90EF900895F8018281882369
:1005F000A1F38091C50181608093C501EECFF80120
:100600008281882309F4BACF0E944113811102C06C
:100610000E9427130E945E1390E09093F70180934D
:10062000F601FE01E350F0478091F6018160E2316E
:10063000F10538F4E255FF4D0C945C208091F601F1
:1006400082608093F6018091F6010E9462130E94FD
:10065000FF0BC3CF8091F6018460F3CF8091F60148
:100660008860EFCF8091F6018061EBCF8091F60139
:100670008062E7CF8091F6018064E3CF8091F6013C
:100680008068DFCF8091F6018C60DBCF8091F6012E
:100690008E7FD7CF8091F6018D7FD3CF8091F601E9
:1006A0008B7FCFCF8091F601877FCBCF8091F601F2
:1006B0008F7EC7CF8091F6018F7DC3CF8091F601E9
:1006C0008F7BBFCF8091F6018F77BBCF8091F601F2
:1006D000837FB7CF9091F601892F97FB87F98058D8
:1006E000B0CFF8018281882361F0109232010E941C
:1006F000DF13909331018093300182E00E946409FE
:100700006CCF8091320181110FC0809130019091A6
:1007100031010E94EB13883C910530F486E20E947F
:10072000390886E20E94150982E00E946B0955CFC4
:100730008091330181110FC080913001909131017E
:100740000E94EB13883C910530F487E20E9439083F
:1007500087E20E94150980E2E8CF0C940E060C9403
:1007600010060C946C020C94B1030895972F70E05E
:1007700025E0929F600D711D1124FB019FE0899F70
:10078000E00DF11D1124EE0FFF1FE455FF4F859181
:1007900094910895FC01EE0FFF1FE457FD4F8591E2
:1007A000949108950E94B6030E9443059C0181150F
:1007B00040E4940708F097C0211580E3380708F05B
:1007C000FAC0203E310508F074C0203C310508F025
:1007D000E5C0283A310588F4253A310508F0E2C031
:1007E0002130310509F477C0C9010497813A910598
:1007F00008F471C030E020E06EC0C901885A910948
:100800004597C0F7283A310509F4FEC0293A310569
:1008100009F4FDC02A3A310509F4FCC02B3A310530
:1008200009F4FBC02C3A310509F4FAC02B3B310521
:1008300009F4F9C02C3B310509F4F8C02D3A310513
:1008400009F4F7C0203B310509F4F6C02E3A310512
:1008500009F4F5C02F3A310509F4F4C0213B310504
:1008600009F4F3C0223B310509F4F2C0233B310502
:1008700009F4F1C0243B310509F4F0C0253B3105F2
:1008800009F4EFC0263B310509F4EEC0273B3105E2
:1008900009F4EDC0283B310509F4ECC0293B3105D2
:1008A00009F4EBC02A3B310509F4EAC020E034E446
:1008B00012C0211590E2390780F42F3F310509F06D
:1008C00050F4283E310538F0C901805F9109306548
:1008D000409708F08FCFC9010895C9019F700E9409
:1008E000CA039C01F8CF8115944508F041C0211539
:1008F00083E5380708F06AC0211592E5390738F515
:10090000211541E5340708F05CC0211580E5380762
:1009100008F454C0C90134E0969587953A95E1F7FB
:100920008370422F46954695437090E2499FA001FF
:100930001124582B822F837021E030E002C0220F57
:10094000331F8A95E2F7242B352B3C68C4CFC901AD
:100950008370992741E050E002C0440F551F8A95EB
:10096000E2F72695269580E2289F90011124EBCF8F
:10097000211596E5390748F4922F8827211535452A
:10098000C8F59C01246F306AA6CFC90190563F700C
:100990008115904108F02ECF30629DCFC901805C57
:1009A00091099DCF253A310549F1263A310549F59E
:1009B00022E830E490CF3327306C8DCF3F70306A1F
:1009C0008ACF322F2227216F306A85CFC9018370E9
:1009D000992741E050E002C0440F551F8A95E2F785
:1009E0002695269580E2289F90011124242B352BF3
:1009F0003A6871CF88279F719C01CECF21E830E4FF
:100A00006ACF23E830E467CF22EE34E464CF29EEE6
:100A100034E461CF2AEE34E45ECF25EB34E45BCFDF
:100A200026EB34E458CF23EB34E455CF24EB34E405
:100A300052CF27EB34E44FCF2CEC34E44CCF2DECE9
:100A400034E449CF23E835E446CF2AE835E443CF00
:100A500022E935E440CF24E935E43DCF21E236E414
:100A60003ACF23E236E437CF24E236E434CF25E22E
:100A700036E431CF26E236E42ECF27E236E42BCF20
:100A80002AE236E428CF803E910581F1C8F4813313
:100A9000910509F462C048F48932910509F456C001
:100AA0008A32910509F460C0089589339105B9F03F
:100AB00082389105A1F08533910509F440C008956D
:100AC000863E910561F138F4823E9105B1F0833E96
:100AD0009105E1F00895873E910551F10895209127
:100AE000F6012370D9F080EE90E008952091F60190
:100AF00020FF14C089E390E008952091F60122FFC1
:100B00000DC024FD09C083EE90E008952091F60108
:100B100022FD31C024FF02C090E080E008952091C2
:100B2000F60123FFFBCF24FDF7CF87EE90E0089579
:100B30002091F60123FFEECF86EE90E008952091FC
:100B4000F60125FFEBCF89E290E008952091F601B0
:100B500025FFE4CF85E390E008952091F60126FF7C
:100B6000DDCF8AE290E008952091F60126FFD6CFEE
:100B700081E390E0089582EE90E0089508950F9348
:100B80001F93CF938C01FB018281811106C0C1E0CC
:100B90008C2FCF911F910F910895C0914101C111E8
:100BA00025C00531104799F70E94BE0581E080936A
:100BB00041010E94DF139093400180933F01109206
:100BC00034011092360110923501109238011092C2
:100BD000370110923A011092390110923C011092A3
:100BE0003B0110923E0110923D01D2CF80913F0116
:100BF000909140010E94EB13883C910540F6809152
:100C00003401E82FF0E0EE0FFF1FEB5CFE4F118385
:100C100000838F5F80933401C0E0BACF0C946802E8
:100C20000C946902CF93DF9385B7806885BF85B741
:100C3000806885BFA8E1B1E04BE151E0C1E0D0E0C0
:100C40008D91E82FE295EF70F0E061A18F709E0129
:100C500001C0220F8A95EAF7922F9095962391A3CF
:100C600082A1822B82A34A175B0751F7A3E1B1E06F
:100C700048E151E0C1E0D0E08D91E82FE295EF70BE
:100C8000F0E061A18F709E0101C0220F8A95EAF702
:100C9000922F9095962391A382A1822B82A34A172B
:100CA0005B0751F7109245011092420110924601E4
:100CB000109243011092470110924401DF91CF91AD
:100CC0000C94AD034F925F926F927F928F929F929E
:100CD000AF92BF92CF92DF92EF92FF920F931F934A
:100CE000CF93DF9382E4482E81E0582E98E1C92EFD
:100CF00091E0D92E25E4E22E21E0F22E01E010E071
:100D0000BB24B394E20199902E01DE011E92F601FC
:100D100081916F01E82FE295EF70F0E091A18F7063
:100D2000980101C0220F8A95EAF7892F822B81A3AF
:100D300082A1822E8094882182A380EA8A95F1F78D
:100D400063E171E090E080E0EB01A990BE014A2DE3
:100D500042954F7050E0EA0168A07C905A2D5F7078
:100D6000E80102C0CC0FDD1F5A95E2F7AE01462123
:100D700009F04FC0402F082E01C0440F0A94EAF733
:100D800047294C93019685309105F1F681A1882180
:100D900081A382A1282B22A38C91981641F0B092B6
:100DA00048010E94DF1390934A0180934901E414A3
:100DB000F50409F0A7CF809148018823B1F0809114
:100DC000490190914A010E94EB13069770F08091BF
:100DD00042018093450180914301809346018091B7
:100DE000440180934701109248010E94AF0381E0C3
:100DF000DF91CF911F910F91FF90EF90DF90CF90F7
:100E0000BF90AF909F908F907F906F905F904F902A
:100E1000089540E0B5CFE82FF0E0EB5BFE4F808116
:100E2000089508959093500180934F010895E091A3
:100E30004F01F0915001309721F00190F081E02DA9
:100E4000099480E00895E0914F01F09150013097AE
:100E500021F00280F381E02D09940895E0914F0183
:100E6000F0915001309721F00480F581E02D099434
:100E7000089520914D0130914E012817390771F0E6
:100E800090934E0180934D01E0914F01F0915001FC
:100E9000309721F00680F781E02D09940895209184
:100EA0004B0130914C012817390771F090934C0198
:100EB00080934B01E0914F01F0915001309721F068
:100EC0000084F185E02D0994089508950C94650738
:100ED0000E94D6130E9412060C949814BF92CF92CF
:100EE000DF92EF92FF920F931F93CF93DF9300D087
:100EF00000D00F92CDB7DEB70E94620682E5C82E01
:100F000081E0D82E10E000E0E02E802F0E940B0739
:100F1000B82EF601F1906F01F81609F45BC08091CC
:100F2000C50181FD0E94110730E020E0FB244F2D18
:100F300050E0922FBA01022E02C0759567950A946F
:100F4000E2F760FF41C02983EA8221E030E07901C5
:100F500002C0EE0CFF1C9A95E2F72B2D30E02E21FB
:100F60003F2181E0232B09F480E08B830E94DF1373
:100F70008160782F9D838C8349815A816B818D811B
:100F80000E941008F801EE5AFE4F80818E25808362
:100F90000E9445170E94170790915101891789F106
:100FA0000E941707809351010F900F900F900F90A0
:100FB0000F90DF91CF911F910F91FF90EF90DF90F5
:100FC000CF90BF900C94B3032F5F3F4F2530310576
:100FD00009F0AFCF0F5F1F4F0330110509F094CF19
:100FE0008FEF89838A831B820E94DF138160782FB1
:100FF0009D838C8349815A816B818D810E94100869
:10100000C7CF0F900F900F900F900F90DF91CF915F
:101010001F910F91FF90EF90DF90CF90BF900895B8
:10102000CF93DF93CDB7DEB72B970FB6F894DEBF23
:101030000FBECDBF4F83588769877A878B871E8203
:1010400085E0FE013796DE01119601900D928A959A
:10105000E1F749815A816B817C818D819E812B963C
:101060000FB6F894DEBF0FBECDBFDF91CF910C94C9
:10107000870E882309F4D8C0823871F40E941707BC
:1010800081FDD2C089E30E942E120E94F81289E3EA
:101090000E946B120C94F812833859F40E941707BF
:1010A00080FDC2C083E50E942E120E94F81283E5E3
:1010B000EFCF843859F40E94170782FDB5C087E44A
:1010C0000E942E120E94F81287E4E2CF9CEF980F44
:1010D000913A18F40E942E12DDCF90E2980F9830CA
:1010E00050F4877091E001C0990F8A95EAF7892F33
:1010F0000E94AF12CFCF9BE5980F933070F4853AE2
:1011000031F0863A39F083E890E00C94390781E8B1
:1011100090E0FBCF82E890E0F8CF98E5980F95310A
:1011200008F082C0883A09F440C0893A09F440C006
:101130008A3A09F440C08B3A09F440C08C3A09F469
:1011400040C08B3B09F440C08C3B09F440C08D3A51
:1011500009F440C0803B09F440C08E3A09F440C015
:101160008F3A09F440C0813B09F440C0823B09F446
:1011700040C0833B09F440C0843B09F440C0853B38
:1011800009F440C0863B09F440C0873B09F440C0E5
:10119000883B09F440C0893B09F440C08A3B09F40C
:1011A00040C090E080E00C944F0782EE90E0FBCFCF
:1011B00089EE90E0F8CF8AEE90E0F5CF85EB90E0F5
:1011C000F2CF86EB90E0EFCF83EB90E0ECCF84EBB7
:1011D00090E0E9CF87EB90E0E6CF8CEC90E0E3CFB6
:1011E0008DEC90E0E0CF83E891E0DDCF8AE891E0FC
:1011F000DACF82E991E0D7CF84E991E0D4CF81E2E0
:1012000092E0D1CF83E292E0CECF84E292E0CBCFE6
:1012100085E292E0C8CF86E292E0C5CF87E292E015
:10122000C2CF8AE292E0BFCF0895882309F44BC071
:10123000823871F40E94170781FF45C089E30E943C
:101240002E120E94F81289E30E946B120C94F8127D
:10125000833859F40E94170780FF35C083E50E9448
:101260002E120E94F81283E5EFCF843859F40E94C1
:10127000170782FF28C087E40E942E120E94F812EE
:1012800087E4E2CF9CEF980F913AF0F290E2980F4A
:10129000983050F4877091E001C0990F8A95EAF771
:1012A000892F0E94B512D2CF9BE5980F933020F47E
:1012B00090E080E00C943907885A853120F490E062
:1012C00080E00C944F070895882321F00E94AF120C
:1012D0000C94F8120895882321F00E94B5120C9402
:1012E000F81208958F929F92AF92BF92DF92EF9281
:1012F000FF920F931F93CF93DF9300D000D00F92F4
:10130000CDB7DEB77C016D837983FC010581029541
:101310000F70128111110E94CE120E942712D82E36
:10132000882371F01123A1F08D81805E883080F0D8
:1013300082E00E9411120E94271291E0D82ED92635
:10134000E981E295EF70F0E0E054FF4D0C945C20F1
:10135000D12CF6CF09810F70F981F07F11F0029541
:10136000007F1123B1F0002361F08D81805E883011
:1013700018F02D81211109C0802F0E94AF120E9408
:10138000F8128D810E94390815C0802F0E94C0126A
:10139000F6CF8D810E941509002361F08D81805E5A
:1013A000883018F03D81311129C0802F0E94B5127C
:1013B0000E94F812DD2009F4D3C10E94041280FDBE
:1013C000CFC1F70112820E94FE110E944510C70191
:1013D0000E94C10B0E94FE110F900F900F900F9072
:1013E0000F90DF91CF911F910F91FF90EF90DF90C1
:1013F000BF90AF909F908F900C946710802F0E94A9
:10140000C612D6CF49814F70B42E5981507F5032C9
:1014100019F0B29480EFB8228D81882369F0813071
:1014200029F1112369F1002359F0F701858180FF2B
:10143000A8CF8F70858304C0112361F0011104C00F
:101440008B2D0E946409B6CF8B2D0130D1F70E94FD
:10145000E212B0CF011106C00E94E5128B2D0E944E
:101460006B09A8CF013009F4A5CFF6CF112321F0E5
:10147000063008F09FCFE4CF053008F09BCFEECFC9
:10148000002361F38D810E94150994CF898186958F
:101490008695837069F0813009F08CCF8D819981B8
:1014A0009370111102C090E080E00E944F0782CF3C
:1014B0008D8199819370111102C090E080E00E94AB
:1014C000390778CF8D81112329F00E9453160E948D
:1014D0003A1770CF0E94BB16FACF8981837009F04A
:1014E0005FC0111167CF2D81229526952770220F9D
:1014F000220F8D818F7090E0B0E0A0E04C015D0183
:10150000022E04C0880C991CAA1CBB1C0A94D2F79A
:10151000FD8160E070E0CB01F4FF0FC06FE070E090
:1015200080E090E004C0660F771F881F991F2A95FE
:10153000D2F760957095809590952981269526958E
:1015400023702D832230B1F0233019F19B01AC01BF
:10155000282939294A295B2929833A834B835C83CB
:101560003D8169817A818B819C813130B1F00E940B
:10157000D20F20CF9B01AC01282939294A295B29A8
:1015800029833A834B835C83CA01B9010E94FC0F13
:1015900011CF0E94D20FC501B4010E94A80F0ACF3B
:1015A0008695112311F089818170882309F402CF77
:1015B0002D81229526952770220F220F8D818F7005
:1015C00090E0B0E0A0E04C015D01022E04C0880C68
:1015D000991CAA1CBB1C0A94D2F73D8160E070E004
:1015E000CB0134FF0FC06FE070E080E090E004C0FA
:1015F000660F771F881F991F2A95D2F760957095FF
:101600008095909549814695469543704D8342302B
:10161000B1F0433019F19B01AC01282939294A293D
:101620005B2929833A834B835C833D8169817A817D
:101630008B819C813130B1F00E94D810BBCE9B01D0
:10164000AC01282939294A295B2929833A834B830C
:101650005C83CA01B9010E940211ACCE0E94D8106D
:10166000C501B4010E94AE10A5CE3D81323F09F400
:1016700047C080F4303F79F1313FD9F1832F805E4C
:101680008031D0F0112309F456C001117ACE89813E
:101690008F7133C04D81433FD1F1443F99F71123FE
:1016A00009F43FC089818F7189830E94451063E0EE
:1016B00089810E9408127ECE5D815F705D83898181
:1016C0008F71112321F00E9445108D81BACE0E94A6
:1016D00067108D81C4CE112341F0053008F06ACE29
:1016E00089818F710E948C1065CE063008F062CE21
:1016F000F7CF89818F71112339F00E9445105ACE9E
:1017000089818F711123C9F30E94671053CE112371
:1017100029F089818F710E9430104CCE0E942610D2
:1017200049CE81E00E941112023008F443CE82E0DB
:101730000E9411123FCE0111A5CE89818F71E4CF95
:1017400049814F706D81C7010E9465020E94210F7F
:1017500031CE49814F706D81C7010E94B5032ACEF9
:101760000F900F900F900F900F90DF91CF911F91DE
:101770000F91FF90EF90DF90BF90AF909F908F9070
:1017800008950F931F93CF93DF93EC018B819C817E
:10179000892B29F08881998189238F3F29F4DF9152
:1017A000CF911F910F910895CE010E947E02882350
:1017B000B1F3688179818A810E94D4118C010E94E1
:1017C0002C110E949D0FB801CE01DF91CF911F9186
:1017D0000F910C9472090E94CE120E94DF120E9497
:1017E000A1120E94F8120E942B180E943A1790E052
:1017F00080E00E94390790E080E00C944F070E943F
:10180000BD120C94EB0B0E94C811282F892F8295D2
:101810008F70903C80F48A30B0F4843020F48230B1
:1018200090F480E008958630E1F781E0203E88F072
:10183000213FB9F70EC08C3011F08F3091F793FB38
:10184000882780F9089581E0203F39F018F4203E80
:1018500040F70895243F29F7FCCF0895CF93DF93F5
:1018600000D000D00F92CDB7DEB70F900F900F9041
:101870000F900F90DF91CF910895CF93DF9300D019
:1018800000D000D0CDB7DEB726960FB6F894DEBFF5
:101890000FBECDBFDF91CF9108951F93CF93DF93FC
:1018A000E091560116E0809157018E1304C0DF913C
:1018B000CF911F910895CE2FD0E01E9FF0011124EB
:1018C000E85AFE4F40815181628173818481958104
:1018D0000E943D0CFE013196E770E5CF40918801F2
:1018E0005091890160918A0170918B0180918C01E6
:1018F00090918D010C943D0C1F93CF93DF938091B9
:101900008D01807FC1F480918A018823A1F08091AC
:101910005601C091570160918801709189014091F1
:101920008B0150918C01D62FD723DA01A095B09569
:1019300016E0C81304C0DF91CF911F91089590E085
:101940004115510511F0DF3F31F401968770F1CF59
:101950002A0F3B1F17C0189FF001199FF00D11248B
:10196000E85AFE4F21812713F0CF20812613EDCFB7
:1019700022812111EACF238134812417350740F3D6
:10198000241B350B283C310500F720918D012F7069
:10199000206120938D0126E0289FF001299FF00D02
:1019A0001124E35AFE4F80818F708061808388E824
:1019B00091E00E94C10BDF91CF911F910C944D0CCF
:1019C0009F92AF92BF92CF92DF92EF92FF920F93CE
:1019D0001F93CF93DF93CDB7DEB72B970FB6F89455
:1019E000DEBF0FBECDBF8C0185E0F801DE0117968A
:1019F00001900D928A95E1F7D8014C9111965C9176
:101A000011971296EC90129780918B0190918C0116
:101A1000009709F46BC12091880130918901632FEF
:101A200062236F3F09F462C11396CD90DC909090D1
:101A30008A01992009F4F8C0C816D90608F43FC0F5
:101A4000F601E81BF90BCF01FF24F394883C9105C4
:101A500008F0F12C88E8A82E81E0B82E80918D0145
:101A6000982F907FFF2009F4B7C0911180C0FE2C01
:101A700035132AC0241328C0E11026C08F7080615E
:101A800080938D010E946E0CC5010E94C10B809154
:101A90008D01D80115968C938F2D2B960FB6F89447
:101AA000DEBF0FBECDBFDF91CF911F910F91FF9091
:101AB000EF90DF90CF90BF90AF909F90089580956A
:101AC00090958C0D9D1DC0CFCD2829F0842F8523A6
:101AD0008F3F09F019C180E0B82FB170DB2EE09183
:101AE00056012091570136E080FD1CC0EE20A1F286
:101AF00080918D01816080938D01F12CCDCF8E2F4F
:101B000090E03E9FF0011124E85AFE4F6181651379
:101B100006C06081641303C062816E11E7CFFC01CF
:101B20003196E770E213EBCF4F8358878F8198850A
:101B30000E94C811292F22952F70903260F0225FE9
:101B40002F70223078F49F7051F0F8019581907FCA
:101B500031F4D12C0AC09F7011F08823D1F3805E3C
:101B60008830B8F3C8010E94C10BFD2C95CF351306
:101B700006C0241304C0D801EE2009F47BC04F83B3
:101B800058878F8198850E94030C882309F4B8C078
:101B9000EE2009F4B5C080918D01803270F0209163
:101BA0008801309189013A8329831B82DD82CC82AE
:101BB0008E83CE0101960E94C10B86E0F801A8E851
:101BC000B1E001900D928A95E1F70E947C0C0E9491
:101BD0006E0CFF24F39460CF911113C07C2DDB8633
:101BE000CA866E2D8B850E942E0C88E891E00E949B
:101BF000C10B86E0F50111928A95E9F70E946E0CFF
:101C00004BCF3513BCCF2413BACFE110B8CFD801D6
:101C100015968C93C8010E94C10B86E0F5011192C4
:101C20008A95E9F7F92C38CFC816D90688F1B6019C
:101C3000681B790BCB01F12C883C910508F047C05B
:101C4000FE2CEE2009F45CC0351330C024132EC0E6
:101C500080918D0180FD21C0982F907FF1F0D801F7
:101C600015968C931597903F39F0982F907F905F41
:101C70008F70892B15968C93C8010E94C10B86E04A
:101C8000F801A8E8B1E001900D928A95E1F7B6CF8E
:101C9000809590958C0D9D1DCECF86E0F801A8E82B
:101CA000B1E001900D928A95E1F7F6CE4F83588707
:101CB0008F8198850E94030C81117FCF80918D01C7
:101CC000816080938D01C8010E94C10BE5CE7C2DFF
:101CD000DB86CA866E2D8B850E942E0C86E0E8E896
:101CE000F1E0DF011D928A95E9F788CFEE2041F0FF
:101CF0004F8358878F8198850E94030C81115DCF97
:101D0000C8010E94C10B65CF81E08E25E5CE1F93EF
:101D1000CF93DF93CDB7DEB72C970FB6F894DEBF25
:101D20000FBECDBF4F83588769877A878B879C8783
:101D3000CE0107960E94E00C882369F08A859B8576
:101D4000892B39F04F815885842F85238F3F09F0E7
:101D500071C016E05FC086E0FE013796DE01119685
:101D600001900D928A95E1F78A859B85892B89F3ED
:101D700088859F8189238F3F61F32091570130E04F
:101D8000C901019687709927409156014817190695
:101D900071F40E94FF0B109257011092560186E0D9
:101DA000E8E8F1E0DF011D928A95E9F7D2CF96E0ED
:101DB000929FD001939FB00D1124A85ABE4FFE01EF
:101DC000319601900D929A95E1F7809357010E9408
:101DD0004D0CBFCF819FC0011124885A9E4F0E9495
:101DE000E00C8823E9F0E09156011E9FF0011124D8
:101DF000E85AFE4F408151816281738184819581CF
:101E00000E943D0C8091560190E0019687709927C1
:101E10008093560180915601909157018913DACF32
:101E20002C960FB6F894DEBF0FBECDBFDF91CF91D9
:101E30001F91089569857A858B859C850E943D0C4C
:101E400088CFEF92FF920F931F93CF93DF938C0174
:101E5000892B89F0F12CEE24E394E8012196F80116
:101E60008491843709F457C0A0F4823009F43EC04D
:101E700048F48130D1F0DF91CF911F910F91FF9005
:101E8000EF9008959CEF980F9037A8F70E943908BB
:101E90000AC0853709F44CC09CE7980F903758F773
:101EA0008F770E9415098E0116C00E5F1F4FFE012D
:101EB000849190E2980F983060F48770FE2D01C0F5
:101EC000FF0F8A95EAF78F2F0E94D1120E94F81215
:101ED00002C00E9439088F2D815008F4BECFEFE96F
:101EE000FFE03197F1F700C00000F6CF0E5F1F4F03
:101EF000FE01849190E2980F983050F48770FE2D87
:101F000001C0FF0F8A95EAF78F2F0E94D712DECF0C
:101F10000E941509E0CF0E5F1F4FFE01C491C15012
:101F2000D0F28FE99FE00197F1F700C00000F7CFF2
:101F30000E5F1F4FFE01F490CECF089560939C0179
:101F400070939D0180939E0190939F010C94EB0BE5
:101F5000CF93DF9300D000D0CDB7DEB769837A830B
:101F60008B839C8380919C0190919D01A0919E0107
:101F7000B0919F0129813A814B815C81822B932B07
:101F8000A42BB52B80939C0190939D01A0939E015F
:101F9000B0939F010F900F900F900F90DF91CF9112
:101FA0000C94EB0BCF93DF9300D000D0CDB7DEB70E
:101FB00069837A838B839C8380919C0190919D019E
:101FC000A0919E01B0919F0129813A814B815C8152
:101FD00082239323A423B52380939C0190939D0196
:101FE000A0939E01B0939F010F900F900F900F90C0
:101FF000DF91CF910C94EB0BCF93DF9300D000D007
:10200000CDB7DEB769837A838B839C8380919C01F3
:1020100090919D01A0919E01B0919F0129813A81EB
:102020004B815C8182279327A427B52780939C014D
:1020300090939D01A0939E01B0939F010F900F90EC
:102040000F900F90DF91CF910C94EB0B10929801B1
:102050001092990110929A0110929B010C94EB0B33
:1020600041E050E060E070E004C0440F551F661F7F
:10207000771F8A95D2F74093980150939901609306
:102080009A0170939B010C94EB0B282F81E090E058
:10209000A0E0B0E004C0880F991FAA1FBB1F2A95BB
:1020A000D2F7409198015091990160919A017091F5
:1020B0009B01842B952BA62BB72B80939801909393
:1020C0009901A0939A01B0939B010C94EB0B41E012
:1020D00050E060E070E004C0440F551F661F771F9A
:1020E0008A95D2F7409550956095709580919801AA
:1020F00090919901A0919A01B0919B01842395231D
:10210000A623B7238093980190939901A0939A01F5
:10211000B0939B010C94EB0B282F81E090E0A0E0A2
:10212000B0E004C0880F991FAA1FBB1F2A95D2F7E1
:10213000409198015091990160919A0170919B0191
:1021400084279527A627B727809398019093990114
:10215000A0939A01B0939B010C94EB0BCF93DF9368
:1021600000D000D0CDB7DEB769837A838B839C83A0
:102170008091980190919901A0919A01B0919B0151
:1021800029813A814B815C81822B932BA42BB52B27
:102190008093980190939901A0939A01B0939B0129
:1021A0000F900F900F900F90DF91CF910C94EB0B4D
:1021B000CF93DF9300D000D0CDB7DEB769837A83A9
:1021C0008B839C838091980190919901A0919A01B1
:1021D000B0919B0129813A814B815C8182239323B9
:1021E000A423B5238093980190939901A0939A0119
:1021F000B0939B010F900F900F900F90DF91CF91B4
:102200000C94EB0BCF93DF9300D000D0CDB7DEB7AB
:1022100069837A838B839C83809198019091990143
:10222000A0919A01B0919B0129813A814B815C81F7
:1022300082279327A427B52780939801909399012B
:10224000A0939A01B0939B010F900F900F900F9065
:10225000DF91CF910C94EB0B0895292F220F220FC1
:10226000E22FE90FE80F8E2F877041E001C0440F85
:102270008A95EAF7E695E695E69585E0E89FF00110
:102280001124E257FE4F30E020E070E05191DF0171
:102290001197CB01022E02C0969587950A94E2F71A
:1022A000817081958527842385278C932F5F3F4FED
:1022B0002530310559F70895292F220F220FE22FDB
:1022C000E90FE80F9E2F9770E695E695E69585E075
:1022D000E89FF0011124E257FE4F50E040E080E01B
:1022E000219130E0092E02C0369527950A94E2F735
:1022F00021703327042E01C0220F0A94EAF7822BA3
:102300004F5F5F4F4530510559F70895BF92CF9207
:10231000DF92EF92FF920F931F93CF93DF938C0185
:10232000C0909801D0909901E0909A01F0909B01A3
:1023300080919C0190919D01A0919E01B0919F017F
:10234000C82AD92AEA2AFB2ACFE1D0E0BC2ED7013D
:10235000C6010C2E04C0B695A795979587950A944B
:10236000D2F780FD0EC0219788F7B12C8B2DDF911D
:10237000CF911F910F91FF90EF90DF90CF90BF9082
:102380000895B8018C2F0E94D203019761F3EECF1C
:10239000CF93DF93D82FC92F0E9486116D2F7C2FEA
:1023A000DF91CF910C94D2031F93CF93DF93162F1D
:1023B000D72F90915501992339F0862F972FDF91D0
:1023C000CF911F910C94C811882391F0862F972FDD
:1023D0000E948611C82F682F812F9D2F0E942D11DA
:1023E000612F7D2F8C2FDF91CF911F910C94D20301
:1023F000862F972F0E945C11C82FF2CF8091A001E9
:1024000085958595859508958091A001877008959B
:1024100098E0899F90011124622B6093A0010C9495
:1024200045109091A001809589238093A001282FC9
:10243000277061F4282F082E000C330B9217130617
:1024400029F08595859585950C9467100895909150
:10245000A001977081E009F480E008959091120145
:102460009923E1F09091F60197FF18C0E82FE695C7
:10247000E695E695EF3139F12091000130910101A7
:10248000E20FF32FF11D877021E030E001C0220F31
:102490008A95EAF78181822B81830895209100013A
:1024A00030910101F90132969FEF40E0519185177B
:1024B00051F09F3F19F4511101C0942F4F5F4E31DD
:1024C000A9F79F3F09F40895290F311D97FD3A950B
:1024D000F9018283089590911201992301F190915D
:1024E000F60197FF1CC0E82FE695E695E695EF31DB
:1024F00039F12091000130910101E20FF32FF11D1C
:10250000877021E030E0A90102C0440F551F8A9571
:10251000E2F7CA01809591818923818308952091F2
:10252000000130910101F9013296205E3F4F9191F7
:10253000891303C0DF0111971C92E217F307B9F763
:10254000089581E090E0E0910001F0910101E80F31
:10255000F91F1082019680329105A9F70895909194
:10256000C401982B9093C4010895982F9095809161
:10257000C40189238093C40108951092C401089571
:102580009091C301982B9093C3010895982F909533
:102590008091C30189238093C30108951092C301E0
:1025A00008959091C201982B9093C2010895982F9D
:1025B00090958091C20189238093C2010895109261
:1025C000C20108958093A10108951092A101089578
:1025D0002091000130910101F9013196205E3F4FB9
:1025E00080E0919191118F5FE217F307D1F7089581
:1025F000E0910001F09101018091C4018083E0919C
:102600000001F091010180819091C301892B8083A9
:10261000E0910001F091010180819091C201892B2C
:1026200080839091A101992361F0E0910001F091E4
:1026300001018081892B80830E94E8128111109210
:10264000A10180910001909101010C9423076DEE8E
:102650007EEF90E080E00E94962060E082E090E0D3
:102660000E94842060E083E090E00E94842060E08B
:1026700084E090E00E94842060E085E090E00C948B
:10268000842090E080E00E947E209C0181E02D3E2D
:102690003E4F09F080E0089582E090E00C947620AF
:1026A000682F82E090E00C94842083E090E00C940A
:1026B0007620682F83E090E00C94842084E090E002
:1026C0000C947620682F84E090E00C948420809114
:1026D000FC01843039F11092C60188E190E020E4D9
:1026E0000FB6F894A895809360000FBE2093600009
:1026F00080E00E94B30383B7817F846083BF83B788
:10270000816083BF7894889583B78E7F83BF0FB62F
:10271000F894A89580916000886180936000109281
:1027200060000FBE089508950895CF930E949313FB
:102730000E9462060E949413C0E08C2F0E940B0737
:10274000811105C0CF5FC330C1F7CF91089581E0FB
:10275000FCCF0E94FF0B0E9417070C94B3031F923B
:102760001FB61F9211248F939F93AF93BF938091B5
:10277000C601811113C08091F2019091F301A091E3
:10278000F401B091F5014196A11DB11D8093F201B4
:102790009093F301A093F401B093F501BF91AF9131
:1027A0009F918F911F901FBE1F90189582E084BD4E
:1027B00093E095BD9AEF97BD80936E0008952FB773
:1027C000F8948091F2019091F301A091F401B091FD
:1027D000F5012FBF0895CF92DF92EF92FF929C01F7
:1027E0004FB7F8948091F2019091F301A091F40118
:1027F000B091F5014FBF6C017D01EE24FF24A901CA
:1028000070E060E0C416D506E606F70638F0821BD5
:10281000930BFF90EF90DF90CF9008950197F7CF43
:102820001F921FB61F9211248F939F93AF93BF9354
:102830008091F2019091F301A091F401B091F50122
:102840000196A11DB11D8093F2019093F301A09315
:10285000F401B093F501BF91AF919F918F911F90BB
:102860001FBE1F9018950E941F1CF8942FEF87EA37
:1028700091E6215080409040E1F700C0000087E0E1
:1028800090EBDC018093050290930602A09307026F
:10289000B093080288E19CE00FB6F894A895809365
:1028A00060000FBE90936000FFCFCF92DF92EF9257
:1028B000FF920F931F93CF93C0E0E82EF12C8C2F43
:1028C0000E940B0710E000E0C82ED12CC601002E9C
:1028D00002C0959587950A94E2F780FF11C0602F9A
:1028E0007C2F80E00E94B603E816F90649F481E0E7
:1028F000CF911F910F91FF90EF90DF90CF900895AF
:102900000F5F1F4F0530110509F7CF5FC330B9F6D0
:1029100080E0EECFCF93C82F8CE20E94551488231D
:1029200021F08C2FCF910C94551480E0CF91089515
:10293000CF93DF9300D000D0CDB7DEB70E94411314
:10294000811102C00E94271395E6998308C00E9456
:1029500062068FE39CE90197F1F700C00000A981AE
:10296000A150A983A111F3CF89E20E948A14811199
:1029700010C18AE20E948A1481110E94271385E007
:102980000E948A1481110E9433140E944C13809378
:10299000C50187E00E948A14882371F08BE10E94B0
:1029A0008A14882309F4D1C09091C501892F8D7FA5
:1029B00091FF82608093C5018091C5010E945013F0
:1029C0000E945E1390E09093F7018093F60180EEF1
:1029D0000E948A14882341F09091F601892F8E7FFE
:1029E00090FF81608093F60189E30E948A14882316
:1029F00041F09091F601892F8D7F91FF8260809345
:102A0000F60182EE0E948A14882341F09091F6012B
:102A1000892F8B7F92FF84608093F60186EE0E945F
:102A20008A14882341F09091F601892F877F93FFC4
:102A300088608093F60183EE0E948A14882341F017
:102A40009091F601892F8F7E94FF80618093F6012B
:102A500085E30E948A14882341F09091F601892F22
:102A60008F7D95FF80628093F60181E30E948A1436
:102A7000882341F09091F601892F8F7B96FF806427
:102A80008093F60181E10E948A14882341F090919D
:102A9000F601892F97FB87F980588093F601809182
:102AA000F6010E94621387E20E948A1489838EE1F4
:102AB0000E948A14882319F0B981B260B9838FE12A
:102AC0000E948A14882319F029812460298380E2D6
:102AD0000E948A14882319F039813860398381E291
:102AE0000E948A14882319F049814061498382E257
:102AF0000E948A14882319F059815062598383E215
:102B00000E948A14882319F089818064898384E271
:102B10000E948A148823B1F19981906899838981F0
:102B20000E9459133981232F30E050E040E029837F
:102B30003A834B835C83CA01B9010F900F900F90C9
:102B40000F90DF91CF910C949E0F8EE00E948A141B
:102B5000882339F09091C501892F8B7F92FF846083
:102B600029CF80E10E948A149091C501882329F021
:102B7000892F877F93FF88601DCF892F8E7F90FFDD
:102B8000816018CFA981A111CACF0E945513282FA7
:102B9000CBCF0F900F900F900F90DF91CF910895B2
:102BA0008091C90180FF12C06091050185E0689F96
:102BB000B001112475956795759567956038710515
:102BC000A8F561157105A1F1862F089581FF09C04F
:102BD0006091050185E0689FB001112475956795A6
:102BE000EDCF6091050182FD0AC08091CA01882362
:102BF000D1F09091040160910501891728F085E0DA
:102C0000689FB0011124DACF869FB001112485E0BE
:102C1000869F9001879F300D1124692F70E0C901B4
:102C20000E944820CBCF65E070E0CECF8FE70895BB
:102C300081E008958091C90180FF0CC0609103017B
:102C400070E075956795759567956115710549F102
:102C5000862F089581FF06C06091030170E075958D
:102C60006795F3CF6091030182FD0BC09091CA017B
:102C70009923A1F06091020180910301961738F029
:102C8000682F70E06038710500F38FE70895899F21
:102C9000C001112470E00E944820F4CF61E070E090
:102CA000D7CF81E00895803F31F40E94D0158195FF
:102CB0008093CD010895813F19F40E94D015F8CF7B
:102CC000823F31F40E94D01581958093CC01089504
:102CD000833F19F40E94D015F8CF893F29F40E9450
:102CE0001A168093CE0108958A3F21F40E941A1685
:102CF0008195F7CF8B3F31F40E941A16819580930E
:102D0000CF0108958C3F19F40E941A16F8CF843F22
:102D100031F48091CB0181608093CB010895853F90
:102D200021F48091CB018260F7CF863F21F480911E
:102D3000CB018460F1CF873F21F48091CB01886083
:102D4000EBCF883F21F48091CB018061E5CF8D3FAF
:102D500031F48091C90181608093C90108958E3F4B
:102D600021F48091C9018260F7CF8F3FB9F780913C
:102D7000C9018460F1CF9091CC01803F41F48091F2
:102D8000CD0187FD1092CD01992371F00895813F07
:102D900029F48091CD011816ACF3F6CF823F81F46F
:102DA00097FFF2CF1092CC018091CD019091CE018E
:102DB000892B9091CF01892B49F71092CA01089570
:102DC000833F19F4191674F3DFCF893F39F48091EA
:102DD000CE011816CCF61092CE01D6CF8A3F29F438
:102DE0008091CE0187FFD0CFF6CF8B3F39F4809111
:102DF000CF0187FFC9CF1092CF01C6CF8C3F29F4F6
:102E00008091CF011816BCF3BFCF843F31F480917D
:102E1000CB018E7F8093CB01B7CF853F21F480918A
:102E2000CB018D7FF7CF863F21F48091CB018B7F43
:102E3000F1CF873F21F48091CB01877FEBCF883F93
:102E400021F48091CB018F7EE5CF8D3F31F48091CD
:102E5000C9018E7F8093C90197CF8E3F21F4809165
:102E6000C9018D7FF7CF8F3F09F08ECF8091C901C7
:102E70008B7FF0CF8BEC91E00E942E070E94DF1336
:102E80009093C8018093C70108951F93CF93DF9358
:102E900000D000D000D0CDB7DEB78091C7019091AF
:102EA000C8010E94EB13AC018091CA012091060178
:102EB00030E0811106C0209107019AE0299F90011E
:102EC00011244217530788F02091CC01A091CD0125
:102ED000A9831091CE01B091CF01BE8321110FC003
:102EE0009A2F912B9B2B09F0B2C026960FB6F8941F
:102EF000DEBF0FBECDBFDF91CF911F9108958F3FF1
:102F000019F08F5F8093CA01121624F40E94D01525
:102F10008093CC018091CC0187FF05C00E94D01521
:102F200081958093CC012981121624F40E94D0153A
:102F30008093CD018091CD0187FF05C00E94D015FF
:102F400081958093CD018091CC01882309F455C0EF
:102F50003091CD013D83332309F44FC0282F880FD2
:102F6000330B440B550B29833A834B835C83CA0193
:102F7000B9010E944F1F23E333E343E35FE3698317
:102F80007A838B839C8369817A818B819C810E9467
:102F9000B31F69837A838B839C8369817A818B8158
:102FA0009C810E94171F6093CC018D81082E000C1C
:102FB000990BAA0BBB0B89839A83AB83BC83BC019F
:102FC000CD010E944F1F23E333E343E35FE36983B3
:102FD0007A838B839C8369817A818B819C810E9417
:102FE000B31F69837A838B839C8369817A818B8108
:102FF0009C810E94171F6093CD01111624F40E943A
:103000001A168093CE018091CE0187FF05C00E94E1
:103010001A1681958093CE019E81191624F40E9480
:103020001A168093CF018091CF0187FF05C00E94BF
:103030001A1681958093CF0126960FB6F894DEBFBD
:103040000FBECDBFDF91CF911F910C943A178F3FE8
:1030500009F057CF68CF85E0EBECF1E0DF011D927E
:103060008A95E9F71092CA011092C90108958091DA
:10307000F0010895CF93DF9300D00F92CDB7DEB764
:103080002091FC01243019F523E029838A839B8356
:103090002093E9008FEF9091E800815095FD06C0E4
:1030A00095ED9A95F1F700008111F5CF8091E80038
:1030B00085FF0DC050E040E063E070E0CE01019676
:1030C0000E94971A8091E8008E778093E8000F9015
:1030D0000F900F90DF91CF910895CF93DF9300D0A1
:1030E0000F92CDB7DEB79C018091FC01843031F5A1
:1030F00082E08983205831093B832A8383E08093CF
:10310000E9008FEF9091E800815095FD06C095EDA4
:103110009A95F1F700008111F5CF8091E80085FFC5
:103120000DC050E040E063E070E0CE0101960E94E7
:10313000971A8091E8008E778093E8000F900F90A7
:103140000F90DF91CF9108952091FC012430F1F48C
:1031500022E02093E9002FEF3091E800215035FD67
:1031600006C035ED3A95F1F700002111F5CF209119
:10317000E80025FF0BC050E040E065E070E00E94F1
:10318000971A8091E8008E778093E8000895CF9396
:10319000DF93D82FC92F8091FC018430F1F49091F6
:1031A00012019923E9F09091F60197FF19C08093DD
:1031B000E9008FEF9091E800815095FD06C095E100
:1031C0009A95F1F700008111F5CF8091E80050E069
:1031D00040E060E270E085FD1AC0DF91CF91089574
:1031E00081E08093E9008FEF9091E800815095FD98
:1031F00006C095ED9A95F1F700008111F5CF809109
:10320000E80085FFEACF50E040E068E070E08D2FF5
:103210009C2F0E94971A8091E8008E778093E80097
:1032200080E2ED2FFC2FA0EDB1E001900D928A9588
:10323000E1F7D3CF8091FB01811109C00E941F1CCF
:103240000E947C1C8091E20084608093E2000895DB
:103250001092FB010895089508950C94A91342E07B
:1032600061EC81E00E949B1B42E061EC82E00E94E5
:103270009B1B42E061EC83E00E949B1B42E261ECFD
:1032800084E00C949B1B8091FE01893089F148F405
:10329000823009F494C0833009F44FC0813041F08A
:1032A00008958A3009F47BC08B3009F461C0089519
:1032B0008091FD01813A09F03FC08091E800877F4D
:1032C0008093E8008091010290910202892B61F4C1
:1032D00060E280ED91E070E00E94E61A8091E800E3
:1032E0008B778093E800089560E090E080E0F3CF72
:1032F0008091FD01813201F58091010290910202DD
:10330000009711F00397C1F48091E800877F8093C4
:10331000E8008091E80082FF0BC08091F10080936B
:10332000F0018091E8008B778093E8000C94CF1B2C
:103330008091FC018111EDCF08958091FD01813ACA
:10334000D9F78091010290910202892BA9F780910F
:10335000E800877F8093E8008091E80080FFFCCF41
:10336000809112018093F1008091E8008E77DCCF8C
:103370008091FD01813201F780910102909102025A
:10338000892BD1F68091E800877F8093E8000E9426
:10339000CF1B8091FF01809312010C94FF0B809151
:1033A000FD01813249F68091E800877F8093E80033
:1033B0000E94CF1B809100028093F10108958091BB
:1033C000FD01813A09F0B8CF8091E800877F8093B2
:1033D000E8008091E80080FFFCCF8091F101C2CF2E
:1033E00084B7877F84BF0FB6F894A895809160005A
:1033F000886180936000109260000FBE80E8809327
:103400006100109261000E9466070E941F1C0E94CA
:103410007C1C8091E20084608093E20078940E949A
:10342000FC1E0E94680788E091E00E9412078091CC
:10343000FC01853019F00E946E07F9CF0E946713D6
:103440008091FA01882399F30E949513882379F3D8
:103450000E94811AECCF9C01DA01892F99278330D1
:103460009105C1F068F48130910509F445C00297D7
:1034700061F48DE690E02CEB32E02D933C930895BF
:1034800081329105E1F0829739F190E080E030E0FF
:1034900020E0F3CFC9019927213059F082309105FE
:1034A00059F0E8EBF2E0892B81F7849190E09F01DD
:1034B000E4CFE0EAF2E0F9CFECE8F2E0F6CF6430F6
:1034C00020F7E62FF0E0EE0FFF1FE95DFE4F2081B1
:1034D000318189E090E0D1CF6430B8F670E0FB0133
:1034E000EE0FFF1FE15EFE4F20813181655E7E4F52
:1034F000FB01808190E0C1CF82E190E029E233E0DE
:10350000BCCF80E189BD82E189BD09B400FEFDCF59
:103510008091D8008F7D8093D8008091E0008260F8
:103520008093E0008091E00081FDFCCF0895AF9290
:10353000BF92CF92DF92FF920F931F93CF93DF93AF
:103540006C01EB018A010E94EE1BF82E811123C051
:103550000115110539F0F80180819181C81BD90B43
:10356000C80ED91EB12CA12C2097A9F08091E8009B
:1035700085FD22C08091E8008E778093E8000115D8
:103580001105A1F0F80180819181A80EB91EB182C8
:10359000A08285E0F82E8F2DDF91CF911F910F91A2
:1035A000FF90DF90CF90BF90AF9008950E94EE1BE8
:1035B0008823D1F2F82EEFCFF60181916F0180932D
:1035C000F1002197FFEFAF1ABF0ACECFFC01CB016C
:1035D00020910302309104022617370790F00097DC
:1035E00029F42091E8002E772093E80040E000972E
:1035F00051F4411108C08091E80082FF31C080E0A1
:103600000895C901F3CF2091FC012223A9F12530AF
:10361000A9F12091E80023FD2DC02091E80022FDB2
:10362000EACF2091E80020FFE2CF3091F300209113
:10363000F200009719F02830310558F041E02830A9
:10364000310509F040E02091E8002E772093E80052
:10365000CECF41914093F10001972F5F3F4FE9CFCB
:103660008091FC01882341F0853041F08091E80091
:1036700083FFC1CF81E0089582E0089583E008953B
:10368000FC01CB0120910302309104022617370779
:1036900090F0009729F42091E8002E772093E8001D
:1036A00040E0009751F4411108C08091E80082FF8A
:1036B00032C080E00895C901F3CF2091FC0122239C
:1036C000B1F12530B1F12091E80023FD2EC0209109
:1036D000E80022FDEACF2091E80020FFE2CF309100
:1036E000F3002091F200009719F02830310558F0CE
:1036F00041E02830310509F040E02091E8002E77C4
:103700002093E800CECF44914093F1003196019789
:103710002F5F3F4FE8CF8091FC01882341F0853037
:1037200041F08091E80083FFC0CF81E0089582E0FE
:10373000089583E00895982F973028F08F70809334
:10374000E90081E008959093E900242F762F50E05E
:10375000981731F07091EC002091ED005091F0003D
:1037600021FD02C09F5FE8CF3091EB003E7F309398
:10377000EB003091ED003D7F3093ED003091EB0098
:1037800031603093EB007093EC002093ED00509388
:10379000F0002091EE0027FDE5CF80E008958091B4
:1037A000FD0187FF13C08091E80082FF06C0809171
:1037B000E8008B778093E80004C08091FC018111C0
:1037C000F2CF08958091FC018823D9F38091E8001D
:1037D00080FFF8CF8091E8008E77ECCF2091E40055
:1037E0003091E50095E6A9012091EC00822F8170CF
:1037F00020FF06C08091E80080FF06C080E00895A9
:103800002091E80022FD1AC08091FC01882389F0F4
:10381000853089F08091EB0085FD0FC02091E40098
:103820003091E50042175307F9F29150E1F684E038
:10383000089582E0089583E0089581E008950E944C
:103840008D1C0E94951CE0EEF0E0808181608083F9
:10385000E8EDF0E080818F77808319BCA7EDB0E0C0
:103860008C918E7F8C9380818F7E80831092FB0160
:1038700008950F931F93CF93DF930E948D1C0E9496
:10388000951CC8EDD0E088818F7788838881806817
:10389000888388818F7D888319BC1092FC011092E7
:1038A000F8011092FA011092F90100EE10E0F8010F
:1038B00080818B7F808388818160888342E060E0A3
:1038C00080E00E949B1BE1EEF0E080818E7F808390
:1038D000E2EEF0E080818160808380818860808377
:1038E000F80180818E7F8083888180618883DF9169
:1038F000CF911F910F910895E8EDF0E080818F7EC8
:103900008083E7EDF0E080818160808384E082BF86
:1039100081E08093FB010C94391CE8EDF0E080819C
:103920008E7F80831092E20008951092DA00109248
:10393000E10008951F920F920FB60F9211242F935A
:103940003F934F935F936F937F938F939F93AF9327
:10395000BF93EF93FF938091E10082FF0BC08091B2
:10396000E20082FF07C08091E1008B7F8093E1003D
:103970000E94FB1E8091DA0080FF19C08091D80060
:1039800080FF15C08091DA008E7F8093DA008091ED
:10399000D90080FF94C080E189BD82E189BD09B46E
:1039A00000FEFDCF81E08093FC010E941A198091F6
:1039B000E10080FF19C08091E20080FF15C0809176
:1039C000E2008E7F8093E2008091E200806180932C
:1039D000E2008091D80080628093D80019BC85E015
:1039E0008093FC010E942C198091E10084FF29C082
:1039F0008091E20084FF25C080E189BD82E189BD1C
:103A000009B400FEFDCF8091D8008F7D8093D8004F
:103A10008091E1008F7E8093E1008091E2008F7EB3
:103A20008093E2008091E20081608093E2008091C7
:103A3000F801882309F449C084E08093FC010E94C6
:103A40002D198091E10083FF29C08091E20083FF5E
:103A500025C08091E100877F8093E10082E0809320
:103A6000FC011092F8018091E1008E7F8093E100CB
:103A70008091E2008E7F8093E2008091E20080617D
:103A80008093E20042E060E080E00E949B1B809116
:103A9000F00088608093F0000E942B19FF91EF9155
:103AA000BF91AF919F918F917F916F915F914F9156
:103AB0003F912F910F900FBE0F901F90189519BC3A
:103AC0001092FC010E94281972CF8091E30087FDBB
:103AD00002C081E0B2CF83E0B0CF1F920F920FB649
:103AE0000F9211242F933F934F935F936F937F9384
:103AF0008F939F93AF93BF93CF93DF93EF93FF93F6
:103B0000D091E900DF708091EC00C82FC17080FD7A
:103B1000C0E81092E9008091F000877F8093F00068
:103B200078940E94B11D1092E9008091F0008860A5
:103B30008093F000CD2BCF70C093E900FF91EF91FF
:103B4000DF91CF91BF91AF919F918F917F916F91B5
:103B50005F914F913F912F910F900FBE0F901F904B
:103B600018951F93CF93DF93CDB7DEB7AA970FB603
:103B7000F894DEBF0FBECDBF8DEF91E0FC01019642
:103B80002091F100208322E085309207B9F70E944E
:103B900043198091E80083FF16C18091FD01909147
:103BA000FE019A3008F00FC1E92FF0E0E053FF4D1D
:103BB0000C945C20803881F0823809F004C1809137
:103BC00001028F708093E9008091EB0085FB8827CC
:103BD00080F91092E90006C08091F9019091FA01F4
:103BE000911182609091E800977F9093E800809314
:103BF000F1001092F1008091E8008E77E0C08823F8
:103C000009F4CEC0823009F0DEC08091FF0181113D
:103C1000D1C0809101028F7009F4D5C08093E90072
:103C20002091EB0020FFC6C0933031F48091EB006F
:103C300080628093EB00BEC09091EB009061909306
:103C4000EB0021E030E001C0220F8A95EAF72093D3
:103C5000EA001092EA008091EB008860EACF8111BF
:103C6000B2C01091FF011F778091E3008078812B13
:103C70008093E3008091E800877F8093E8000E94B2
:103C8000CF1B8091E80080FFFCCF8091E30080682B
:103C90008093E30082E0111183E08093FC0193C0E4
:103CA0008058823008F08FC08091FF01909100020F
:103CB0008C3D23E09207A1F583E08A838AE2898321
:103CC0004FB7F894DE01139620E03EE051E2E32F77
:103CD000F0E050935700E49120FF03C0E295EF70AD
:103CE0003F5FEF708E2F90E0EA30C0F0C7968D9363
:103CF0009D932F5F243159F74FBF8091E800877F54
:103D00008093E8006AE270E0CE0101960E94E61A14
:103D10008091E8008B778093E80055C0C096E7CF8C
:103D2000AE014F5F5F4F609101020E942B1ABC01F0
:103D3000892B09F448C08091E800877F8093E800D0
:103D400089819A810E94401BE3CF8038E1F5809100
:103D5000E800877F8093E8008091F8018093F1006C
:103D60004ACF811130C09091FF01923060F580916F
:103D7000E800877F8093E8009093F8010E94CF1BB2
:103D80008091F801882311F084E005C08091E30060
:103D900087FDFACF81E08093FC010E942F1913C0A8
:103DA0008091FF01813079F481E0933009F080E067
:103DB0008093FA011092E9008091E800877F809358
:103DC000E8000E94CF1B8091E80083FF0AC0809129
:103DD000E800877F8093E8008091EB008062809309
:103DE000EB00AA960FB6F894DEBF0FBECDBFDF91F1
:103DF000CF911F9108950895CF938091FC0188235E
:103E0000A1F0C091E900CF709091EC00892F8170F2
:103E100090FD80E8C82B1092E9008091E80083FDB6
:103E20000E94B11DCF70C093E900CF9108950E9408
:103E30001E1F6894B1110C94AD1F08950E94921F2B
:103E400088F09F5798F0B92F9927B751B0F0E1F05B
:103E5000660F771F881F991F1AF0BA95C9F714C00B
:103E6000B13091F00E94AC1FB1E008950C94AC1FEA
:103E7000672F782F8827B85F39F0B93FCCF3869544
:103E800077956795B395D9F73EF4909580957095A1
:103E900061957F4F8F4F9F4F0895E89409C097FB1E
:103EA0003EF490958095709561957F4F8F4F9F4F11
:103EB0009923A9F0F92F96E9BB279395F695879555
:103EC00077956795B795F111F8CFFAF4BB0F11F418
:103ED00060FF1BC06F5F7F4F8F4F9F4F16C08823BF
:103EE00011F096E911C0772321F09EE8872F762FF5
:103EF00005C0662371F096E8862F70E060E02AF036
:103F00009A95660F771F881FDAF7880F9695879521
:103F100097F9089557FD9058440F551F59F05F3F8A
:103F200071F04795880F97FB991F61F09F3F79F0DB
:103F300087950895121613061406551FF2CF46955D
:103F4000F1DF08C0161617061806991FF1CF8695DF
:103F50007105610508940895E894BB2766277727C3
:103F6000CB0197F908950E94C61F0C9437200E9438
:103F7000292038F00E94302020F0952311F00C9475
:103F800020200C94262011240C94AD1F0E948A1F1F
:103F900070F3959FC1F3950F50E0551F629FF0019C
:103FA000729FBB27F00DB11D639FAA27F00DB11DB5
:103FB000AA1F649F6627B00DA11D661F829F22273E
:103FC000B00DA11D621F739FB00DA11D621F839FC5
:103FD000A00D611D221F749F3327A00D611D231F9B
:103FE000849F600D211D822F762F6A2F11249F57E9
:103FF00050409AF0F1F088234AF0EE0FFF1FBB1FEC
:10400000661F771F881F91505040A9F79E3F5105AA
:1040100080F00C9420200C94AD1F5F3FE4F3983E99
:10402000D4F3869577956795B795F795E7959F5F54
:10403000C1F7FE2B880F911D9695879597F90895E6
:1040400097F99F6780E870E060E008959FEF80EC4B
:10405000089500240A9416161706180609060895EE
:1040600000240A9412161306140605060895092E54
:104070000394000C11F4882352F0BB0F40F4BF2BC3
:1040800011F460FF04C06F5F7F4F8F4F9F4F089503
:1040900097FB072E16F4009407D077FD09D00E94F5
:1040A000622007FC05D03EF4909581959F4F0895BE
:1040B000709561957F4F0895EE0FFF1F0590F49165
:1040C000E02D0994AA1BBB1B51E107C0AA1FBB1F0F
:1040D000A617B70710F0A61BB70B881F991F5A9594
:1040E000A9F780959095BC01CD010895F999FECF6F
:1040F00092BD81BDF89A992780B50895A8E1B0E0F6
:1041000042E050E00C949E20262FF999FECF92BDFC
:1041100081BDF89A019700B4021639F01FBA20BD8C
:104120000FB6F894FA9AF99A0FBE08950196272FC0
:104130000E9485200C948420DC01CB01FC01F999BC
:10414000FECF06C0F2BDE1BDF89A319600B40D92E3
:1041500041505040B8F70895F894FFCF1E032A034A
:104160002E03320336033A033E03420346034A0357
:104170004E03520356035A035E03620366036A0347
:10418000AA09AA09020A020A460A620ADA09DA092F
:104190006D0ADA09350B350BA00BDA09DA09A90B20
:1041A000DA1DFF1DE31EFF1DE31E2F1E501EE31E22
:0441B000A51EB11E79
:1041B400A2012808140A321E3718C718A4186D184B
:1041C4003A1801F4F5F6F731333236404D3639F703
:1041D40003AA0374033B03CE02E70200031903009E
:00000001FF
