:100000000C944E030C946B030C946B030C946B03D5
:100010000C946B030C946B030C946B030C946B03A8
:100020000C946B030C946B030C9400100C94FB1554
:100030000C94672C0C946B030C946B030C946B0363
:100040000C946B030C946B030C946B030C946B0378
:100050000C946B030C94D9100C946B030C946B03ED
:100060000C946B030C946B030C946B030C946B0358
:100070000C946B030C946B030C946B030C946B0348
:100080000C946B030C946B030C946B030C946B0338
:100090000C946B030C946B030C946B030C946B0328
:1000A0000C946B030C946B030C946B030501098097
:1000B000A101850319012AB700150126B700950192
:1000C00075108100C0050C0901A101850419012AE0
:1000D000A002150126A002950175108100C005013E
:1000E0000906A1018506050719E029E71500250184
:1000F0009508750181020507190029EF15002501F2
:1001000095F075018102050819012905950575010C
:100110009102950175039101C00660FF0961A1017B
:100120000962150026FF00952075088102096315F4
:100130000026FF00952075089102C005010906A15F
:1001400001050719E029E7150025019508750181CA
:10015000029501750881010507190029FF15002680
:10016000FF0095067508810005081901290515008D
:100170002501950575019102950175039101C00056
:10018000DA028180D9F1DB20A4A62EAF00A0C0D373
:100190000000A1C8D30000AED580A81F408D142058
:1001A00000FD377A585A000004E6D6B44602002112
:1001B0000116000000742FE5A3E000F500915D003A
:1001C0003D8889C65436C3174FE4E5934F119A21F1
:1001D000CF3799797DE0D85064026A5758F77A088A
:1001E000D0BD78FA3E26823F493593190F0D468DD2
:1001F000394E52B1E4242EE4D86398586F71DDC7AC
:100200002C9DE0D42E3116D904B6CEB003EE78CEB4
:100210009E3A925A0437295D620DE9F5D9AB79A56A
:1002200092D399AF370E1C784C3E20834094D0A3D4
:100230003CA5289A2B80B3DF6ACD4B0E303AF3DC15
:100240002743BF312300F19EA6F373E7972226A32D
:1002500025000000000DFCA1085FA8599A0001AD1F
:1002600001F601000011DC78F9B1C467FB0200005F
:10027000000004595A01000100F905EA0FCF0F00F0
:100280000002000200F505EA0FCF0F000003000195
:1002900000FA05EA0FCF0F000004000200DF05EAB4
:1002A0000FCF0FED0605000100FB05EA0FCF0F0091
:1002B0000006000200E105EA0FCF0F000007000270
:1002C00000F705EA0FCF0F000008000100FC05EA67
:1002D0000FCF0F000012000200FD05EA0FCF0F0044
:1002E0000013000200FF05EA0FCF0F000014000109
:1002F000000106EA0FCF0F00001500000000007398
:10030000063817000000AF00AE00000000F0F84C07
:10031000C6821A121A02060C3860C0800000000063
:1003200000000000000000000000000000000000CD
:1003300000000000000000000000000000000000BD
:100340000000000000000000000000000000FCFCB5
:10035000C0E0B01C0C000000FCFC4444444C4C00C9
:1003600000C0F03C0C0C3CF0C0000000000000009D
:10037000000000000000000000000000000000007D
:10038000000000000000000000000000000101006B
:100390000003FEC0404040202000F8010302060C8C
:1003A000183060C080000000000000000000000065
:1003B000000000004040404040404040404040403D
:1003C00040404040404040404040404040404F4F0F
:1003D000404143474E4C40404F4F4848484C4C40AA
:1003E000404F4F414141414F4F40404040404040CD
:1003F00040404040404040404040404040404040FD
:10040000404040404040000000000000000000006C
:1004100000000003061C3868C88C0603068CD890C0
:10042000302060C08183060C183060C000000000DE
:100430000000000032F2820282E2E2E2820282F2F4
:100440007202C2E23212121212E2C20202E2F2128C
:10045000121212F2E20202F2F20282C272320202BC
:1004600002E2F212121212326202F2F202020202EC
:10047000F2F20202C2E23212121232E2C20202E2CC
:100480003212121232E200000000000000000000F0
:1004900000000000000000606061273C266360618E
:1004A000273C26230001010302060C090B0E000065
:1004B0000000000000071F381F0700071F381F0734
:1004C00000000F1F30202020301F0F00003F3F038F
:1004D00003030F3F3000003F3F03070E1C3830007E
:1004E000001831212323223E1C003F3F010101015E
:1004F0003F3F00000F1F30202020301F0F00003F23
:100500003F06060203010000002B0029003A033BCE
:10051000033C0300003D033E033F03000040034152
:1005200003420343034403A900AA000000000000A3
:1005300000000000000000000000000000000000BB
:100540000000000000000000000000000000007E2D
:100550000F00D4FFFFFFC70000007800000000007C
:100560000000002A2B28000000000000000000000E
:1005700000000000000029000000002C1E34202193
:100580002224342627252E362D3738271E1F2021DA
:1005900022232425263333362E37381F0405060739
:1005A00008090A0B0C0D0E0F101112131415161753
:1005B00018191A1B1C1D2F3130232D350405060771
:1005C00008090A0B0C0D0E0F101112131415161733
:1005D00018191A1B1C1D2F3130354C09025B000302
:1005E0000100A0FA09040000010301010009211122
:1005F00001000122440007058103080001090401EC
:10060000000203000000092111010001222200075D
:1006100005820320000107050303200001090402ED
:10062000000103000000092111010001226D0007F3
:1006300005840320000112010002000000084C4262
:10064000014B0100010203011C03760069006100F7
:100650006C003A006600360034006300320062002D
:1006600033006300000014035200680069006E004C
:100670006F00200050006100640000001A034B006E
:1006800065006100200057006F0072006B0073006E
:1006900068006F00700000000403090411241FBEED
:1006A000CFEFDAE0DEBFCDBF11E0A0E0B1E0EAE4D9
:1006B000FEE602C005900D92A838B107D9F727E0F1
:1006C000A8E8B1E001C01D92A034B207E1F70E9492
:1006D0008E2C0C94CF360C940000482F20913E07AE
:1006E0009091F50659E0291302C080E0089530E0AA
:1006F000529FF001539FF00D1124EA50F94F818170
:10070000681306C08081481303C085818111EECF34
:100710002F5F3F4F2770E7CFE8EDF0E080818E7FBD
:1007200080831092E2001092DA001092E100A0EEB5
:10073000B0E08C9181608C9380818F77808319BC2D
:10074000A7EDB0E08C918E7F8C9380818F7E80832B
:100750001092DE0608952091E4003091E50095E6C0
:10076000A9012091EC00822F817020FF06C08091AA
:10077000E80080FF06C080E008952091E80022FD97
:100780001AC08091EB06882389F0853089F080912A
:10079000EB0085FD0FC02091E4003091E500421789
:1007A0005307F9F29150E1F684E0089582E008954C
:1007B00083E0089581E008958091ED0687FF13C0DE
:1007C0008091E80082FF06C08091E8008B778093DB
:1007D000E80004C08091EB068111F2CF089580916A
:1007E000EB068823D9F38091E80080FFF8CF809151
:1007F000E8008E77ECCF982F9093E900242F762F86
:1008000050E0891731F07091EC002091ED0050918B
:10081000F00021FD07C09F5F973071F78093E900DA
:1008200081E008953091EB003E7F3093EB003091F2
:10083000ED003D7F3093ED003091EB00316030935F
:10084000EB007093EC002093ED005093F0002091AA
:10085000EE0027FDE0CF80E00895B0E0A0E0E3E304
:10086000F4E00C94F135C8EDD0E088818F7E888368
:10087000E7EDF0E080818160808384E082BF81E0E9
:100880008093DE0688818E7F888302EE10E0F80177
:1008900010821092DA0081EEC82ED12CF60110825F
:1008A00088818F77888388818068888388818F7D1D
:1008B000888319BC1092EB061092EC061092EA069F
:1008C0001092E90690EEE92EF12CF70180818B7FE2
:1008D000808388818160888342E060E080E00E94BC
:1008E000FB03F60180818E7F8083F8018081816027
:1008F0008083808188608083F70180818E7F808300
:10090000888180618883CDB7DEB7E8E00C940D362E
:10091000FC018091F3069091F40686179707A0F0EA
:100920006115710529F49091E8009E779093E80095
:1009300090E06115710551F4911108C08091E800B3
:1009400082FF34C080E00895BC01F2CF8091EB06B5
:100950008823C1F18530C1F18091E80083FD30C06A
:100960008091E80082FDEACF8091E80080FFE1CF2E
:100970008091F3002091F200382F6115710519F074
:100980002830310558F091E02830310509F090E029
:100990002091E8002E772093E800CBCF81918093BF
:1009A000F100615071092F5F3F4FE7CF8091EB0657
:1009B000882341F0853041F08091E80083FFBECF6D
:1009C00081E0089582E0089583E00895089580917C
:1009D000E006089587E797E7909301088093000861
:1009E00088E19AE00FB6F894A895809360000FBE56
:1009F00090936000FFCF2FB7F8946091DA06709162
:100A0000DB068091DC069091DD062FBF0895909162
:100A100016019923D1F09091D70697FF16C0E82FC1
:100A2000E695E695E695EE31E0F4F0E0EE56FE4F01
:100A3000282F277081E090E001C0880F2A95EAF7FF
:100A400080959281892382830895ECE8F1E0919169
:100A5000891303C0DF0111971C9291E0E239F90775
:100A6000B1F70895909116019923C1F09091D7069E
:100A700097FF14C0E82FE695E695E695EE31F8F479
:100A8000F0E0EE56FE4F877021E030E001C0220F0B
:100A90008A95EAF78281822B82830895ACE8B1E0DF
:100AA000EFEF90E02D91821751F0EF3F19F42111F3
:100AB00001C0E92F9F5F9630A9F7EF3F09F4089531
:100AC0000E2E000CFF0BE657FE4FE6CFA3E0B0E082
:100AD000ECE6F5E00C94F7352091D5063091D6067A
:100AE00028173907A1F09093D6068093D506E09198
:100AF000D306F091D406309751F024E029839B83EC
:100B00008A830084F185E02DCE0101960995239614
:100B1000E2E00C941336A3E0B0E0E1E9F5E00C94D8
:100B2000F7352091D1063091D20628173907A1F068
:100B30009093D2068093D106E091D306F091D4062B
:100B4000309751F023E029839B838A830084F185C9
:100B5000E02DCE01019609952396E2E00C94133620
:100B6000E091D306F091D406309729F00190F081FE
:100B7000E02D0995089580E008954115510511F083
:100B8000FA0109950895CF93DF93EC014091C106D6
:100B90005091C2066091C3067091C4062FB7F894B5
:100BA0008091DA069091DB06A091DC06B091DD061B
:100BB0002FBF841B950BA60BB70B843F9140A1055B
:100BC000B10518F58091C1069091C206A091C306A7
:100BD000B091C4068093BD069093BE06A093BF0655
:100BE000B093C00684EF91E0A0E0B0E08093B90636
:100BF0009093BA06A093BB06B093BC06D093C906E7
:100C0000C093C806DF91CF9108950E94FB046093C2
:100C1000BD067093BE068093BF069093C00682E324
:100C200090E0A0E0B0E0E2CFFC018481862351F4A3
:100C300092819923B9F06923808583FF05C081E003
:100C400061110FC080E00895892F8F7092959F7079
:100C5000982B862F8F7062956F70682B81E09613AA
:100C6000F1CF089581E0FDCFDC016091B306809162
:100C7000B406962F891301C00895292F30E0F90199
:100C8000EE0FFF1FE555F94F408151814A175B0771
:100C9000A1F487E08A9FA0018B9F500D1124465F2D
:100CA000594F81E0FA0184839613E6CF2F5F3F4FBF
:100CB000237033272093B30608952F5F3F4F922F61
:100CC0009370D8CF1092080610920706EAE0F6E07B
:100CD0008581811102C014821682379686E0E23443
:100CE000F807B1F70895B0E0A0E0E9E7F6E00C946A
:100CF000EF358FEF9FEF4430510508F469C0409104
:100D0000D70641FB882780F990E0880F991F42FBA6
:100D1000002700F910E0000F111F000F111F802B9A
:100D2000912B40FBCC24C0F8D12C8C299D2943FB6E
:100D3000222720F9C22FE0E0DE2F53E0CC0FDD1F89
:100D40005A95E1F78C2B9D2B44FBAA27A0F9B0E024
:100D5000E4E0AA0FBB1FEA95E1F78A2B9B2B45FB2A
:100D6000EE27E0F9F0E0A5E0EE0FFF1FAA95E1F70E
:100D70008E2B9F2B46FB222720F930E0B6E0220F76
:100D8000331FBA95E1F7822B932B47FB222720F9DB
:100D900030E03695322F222737952795822B932BDB
:100DA0002091D806322F3170F32EE82EF92A26959D
:100DB0002170B22EBB0CA82EBF28C501BB0CAA0BFC
:100DC000BB0BFB0180839183A283B38390E080E01F
:100DD000CDB7DEB7EAE00C940B368091DF05909139
:100DE000E00590931301809312010895E5E3F2E08A
:100DF00090E080E065E57EE14CE75EE12BEC3DE1D3
:100E000077836683518740873387228797878687D2
:100E1000019670968830910599F7089581152CE711
:100E2000920741F42091B7063091B806232B11F4B4
:100E300090E080E0089580E00895F894E82FE2952E
:100E4000EF70F0E031A1282F2F7081E090E001C019
:100E5000880F2A95EAF7982F9095932391A392A152
:100E6000892B82A3789408959091D70692FF10C0A1
:100E700041E0282F2471243009F040E031E0282F90
:100E80002871283009F030E0431711F02CE0822758
:100E900093FF10C041E0282F2471243109F040E075
:100EA00031E0282F2871283109F030E0431711F084
:100EB0002CE082273091D80630FF10C051E0282F57
:100EC0002171213009F050E041E0282F28712830AD
:100ED00009F040E0541711F029E0822731FF10C0DB
:100EE00041E0282F2171213109F040E031E0282F25
:100EF0002871283109F030E0431711F029E08227EA
:100F000094FD877E089582389105B9F1B0F481335C
:100F1000910509F47DC048F48932910509F46DC04A
:100F20008A32910509F47BC008958533910509F44F
:100F30005FC08933910509F10895833E9105D9F188
:100F400038F4803E910529F1823E910579F10895AA
:100F5000863E9105D9F1873E910509F43EC0843E55
:100F6000910541F52091D80621FF24C08091D70634
:100F700084FD19C087EE90E008952091D706237074
:100F800009F05AC02091D80623FF14C089E290E0EE
:100F900008952091D70620FD38C03091D80630FF43
:100FA00009C024FF43C090E080E008952091D70657
:100FB00022FDF7CF08952091D70622FD3AC0309147
:100FC000D80630FD39C024FFF5CFEDCF2091D706EC
:100FD00023FFF0CF24FDE7CFCDCF2091D70623FD0F
:100FE0002EC03091D80631FFEECF84EE90E0089508
:100FF0002091D70625FFDECFC9CF2091D70625FD4A
:1010000021C02091D80623FFD5CF89E390E0D2CF2D
:101010002091D70626FFCECF8AE290E00895209156
:10102000D70626FFC7CF81E390E0089583EE90E0D6
:10103000089582EE90E0089580EE90E0089586EEA7
:1010400090E0089585E390E008951F93CF93DF9398
:101050000E948307EC01C11580E5D807F0F5C115A2
:1010600080E4D80708F09CC0C03ED10520F5CD3CF7
:10107000D10508F082C0C83AD10578F4C53AD10547
:1010800008F073C0C130D10519F1209709F1C430BF
:10109000D105F0F4D0E0C0E01BC0C33CD105D0F7CF
:1010A000C85AD0E0CC0FDD1FCE5DDE4F0990D8814D
:1010B000C02DD4640DC0C11580E2D80708F0D1C09E
:1010C000C11581E0D80708F05AC0C83ED10510F715
:1010D000CE01DF91CF911F910895C03682E5D807E8
:1010E00018F5C03482E5D80708F06BC0C03282E53D
:1010F000D80708F05FC0C11582E5D80708F497C08B
:101100002C2F2695269580E2289F900111248C2F64
:101110008370C1E0D0E002C0CC0FDD1F8A95E2F7FA
:10112000C22BD32BDD68D4CFC03A82E5D80760F458
:10113000C03882E5D80708F459C0CF71D0E0DC2F61
:10114000CC27C46FD06AC4CFC03C82E5D80708F46E
:1011500062C0C03E82E5D80708F09CCFDC2FCC27C8
:10116000CC27DF71C06FD06AB3CFC55AD0E0C15E63
:10117000DE4FC881D0E0D064ABCFD065A9CF8D2F32
:101180000E943407182FCE0199270E948307C12F90
:10119000D0E0DC2FCC27CC27DF71C82BD92B98CF00
:1011A000CE0199270E948307CC27DF70C82BD92B4B
:1011B000D06A8ECFCF71D0E0DC2FCC27C16FD06A40
:1011C00087CF2C2F26952695277080E2289F9001A7
:1011D00011248C2F8370C1E0D0E002C0CC0FDD1F42
:1011E0008A95E2F7C22BD32BDC6872CF2C2F269581
:1011F0002695277080E2289F900111248C2F837000
:10120000C1E0D0E002C0CC0FDD1F8A95E2F7C22B0F
:10121000D32BDA685DCF8C2F8F710E943407C82FD3
:10122000D0E0DC2FCC27CC27DF71D06251CF8C2FC0
:101230008F710E94340755E0D695C7955A95E1F70E
:10124000CF70D0E0DC2FCC27282F30E084FF05C002
:1012500044E0220F331F4A95E1F7C22BD32BD0690C
:1012600037CF8D2F8F710E943407182FCE01992709
:101270000E948307C12FD0E0DC2FCC27CC27DF7161
:10128000C82BD92BD2CF8091F901882331F010924D
:10129000F9011092F8011092F7010895809590914C
:1012A0003F07982390933F07089580959091BE053E
:1012B00098239093BE0508959091BE05892B809345
:1012C000BE0508951092CE011092CD011092CC016E
:1012D00008959091CB01292F282321F0809589230F
:1012E0008093CB01089580913E079091F506981365
:1012F00001C008958F5F8770FACFA82FA77023E0F1
:10130000969587952A95E1F7FC01EE0FFF1FE80FF0
:10131000F91FE60FF71F50E040E080E0219130E038
:101320000A2E02C0369527950A94E2F721703327DA
:10133000042E01C0220F0A94EAF7822B4F5F5F4F01
:101340004330510559F70895903FC9F0933080F428
:101350008530A8F4282F30E06CEB71E0A901E5E0BE
:101360009E9F400D511D1124CA010E947D090895C0
:101370009C5F923020F469EB71E090E0F6CF80E062
:101380000895262F277091E001C0990F2A95EAF75A
:1013900023E0769567952A95E1F7FB01EE0FFF1F95
:1013A000E60FF71FE40FF51F50E040E0682F70E0F4
:1013B0008191DF0111979B01042E02C0369527957C
:1013C0000A94E2F7217021952827292328272C93B6
:1013D0004F5F5F4F4330510559F70895282F862FEF
:1013E000903F79F0933070F4253058F4622F70E01C
:1013F00025E0929F600D711D11244CEB51E00E947D
:10140000C10908959C5F9230E0F7622F70E049EBCC
:1014100051E0F5CF8093030208959091030221E0FB
:1014200030E0F90101C0EE0F8A95EAF7D90102C058
:10143000AA0FBB1F6A95E2F7EA2B01C0220F4A955B
:10144000EAF7892F8E23E81305C0292B822F0E94EB
:101450000A0A089520952923F9CF21E030E001C040
:10146000220F8A95EAF720958091030282230E9439
:101470000A0A08959091CE01809589238093CE0128
:10148000282F277069F4891759F09091D80692FF98
:1014900007C08695869586950E942D0A0E9462094E
:1014A000089521E030E001C0220F8A95EAF780918B
:1014B0000302822B0E940A0A089580930202089573
:1014C00092959F70963091F058F4925F9F70923091
:1014D00058F4803F19F030F4883E30F481E00895EC
:1014E0009A5FF4CF843FD1F380E00895883EB0F353
:1014F000813FD1F7F3CF9C013A9521153F4150F53B
:10150000FC01EE27F170BC0166277270AC01442724
:1015100054709C012227387094FF0EC080E1EF2B9D
:1015200009F480E0672B09F08062452B09F08064A4
:10153000232B89F08068089581E0EF2B09F480E087
:10154000672B09F08260452B09F08460232B19F08A
:101550008860089580E008950F931F93CF93DF93E1
:101560008B01EA019091EB06943061F58093E900DC
:101570008FEF9091E800815095FD06C095ED9A950A
:10158000F1F700008111F5CF8091E80085FF1AC0C6
:101590000E94AB03811111C08091E80085FD06C057
:1015A0008091E8008E778093E800F2CFF801819176
:1015B0008F018093F100219779F78091E8008E7771
:1015C0008093E800DF91CF911F910F91089543E040
:1015D00050E0BC0184E00E94AC0A089540E250E073
:1015E000BC0184E00E94AC0A0895CF93DF93EC0124
:1015F00048E050E0BC0181E00E94AC0A88E0FE01B6
:10160000A1EEB6E001900D928A95E1F7DF91CF91BE
:101610000895019708F40895EFE9FFE03197F1F795
:1016200000C00000F6CFCF93C82F6FEF811166E0A6
:1016300085E290E00E9493366FEFC1116AEC86E27A
:1016400090E00E9493366FEFC11165E487E290E06D
:101650000E949336CF910895CF93DF93C5ECD1E0EC
:1016600060E0CE010E9493362196C11584E0D80730
:10167000B9F7DF91CF9108950F931F93CF93DF9325
:10168000142F022F8430F0F461111CC094E0899F64
:10169000E0011124CF55DF4F82E090E0442311F0A8
:1016A00090E080E0632F8C0F9D1F0E94933683E0B3
:1016B00090E0112311F081E090E0602F8C0F9D1FCE
:1016C0000E949336DF91CF911F910F9108951F9340
:1016D000CF93DF93122F8430E0F46330D0F44530A1
:1016E000C0F4C42FD0E0CC0FDD1F9AE0699FC00D7D
:1016F000D11D11249EE1899FC00DD11D1124632F9E
:10170000CE0189960E949336612FCE018A960E945F
:101710009336DF91CF911F9108958093BD05682F77
:101720008CE090E00E949336089585E290E00E945C
:101730007536863089F486E290E00E9475368A3CE0
:1017400059F487E290E00E94753691E0853409F003
:1017500090E0892F8170089580E0FCCFFF920F9375
:101760001F93CF93DF93F42E843040F5611126C090
:1017700024E0829F800111240F551F4F82E090E0EA
:10178000442311F090E080E0800F911F0E94753695
:10179000C82FD0E0DC2FCC2783E090E0FF2011F0B1
:1017A00081E090E0800F911F0E9475369E01282BEA
:1017B000C901CDB7DEB7E5E00C94103690E080E0CB
:1017C000F8CF0F931F93CF93DF93843030F56330BE
:1017D00020F5453010F5C42FD0E0CC0FDD1F2AE0F6
:1017E000629FC00DD11D11243EE1839FC00DD11D0C
:1017F0001124CE0189960E947536082F10E0102F13
:101800000027CE018A960E9475369801282BC901BF
:10181000DF91CF911F910F91089590E080E0F8CF74
:10182000462F672F20911F0230912002232BC9F4ED
:10183000703F39F4403FA9F4809121029091220237
:101840000895733038F4453060F4843050F40E94C9
:10185000E10B08957D3F41F4411103C041E0843024
:1018600048F090E080E008957C3FD9F74111F9CF2E
:101870008430B8F760E00E94AE0B0895CF92DF92FB
:10188000FF920F931F93CF93DF936C01009103029C
:1018900080910202082BC3E0D0E010E0FC2EC801CA
:1018A0000C2E02C0959587950A94E2F780FD0CC036
:1018B0002197A0F7F12C8F2DDF91CF911F910F91E0
:1018C000FF90DF90CF900895B6018C2F0E94100CEE
:1018D0000E942508019761F3EECFCF93DF93EC01CF
:1018E0000E943E0CBE010E94100C0E942508DF9150
:1018F000CF910895FC018481882371F087819085C0
:10190000009729F00E9425080E94600A08958081AE
:1019100091810E946D0CF8CF80E00895A6E0B0E0C0
:10192000E4E9FCE00C94F63549835A8349815A81F5
:101930009923A1F0222391F0CA010E943E0C182F96
:10194000682F89819A810E94EE0969817A81812FAD
:101950000E94100C2696E3E00C941236CA010E94F5
:10196000A409182FF2CFFC01262F878190850097BC
:1019700041F44081518162817381848195810E940B
:101980008E0C08950F931F93CF93DF930FED15E007
:10199000C1EBD0E0CE010E947536F80161918F0154
:1019A000681719F0CE010E9493362196C53DD105E6
:1019B00089F7DF91CF911F910F9108950F931F9396
:1019C000CF93DF930FED15E0C1EBD0E0CE010E9485
:1019D0007536F80181938F012196C53DD105B1F788
:1019E000CFE7D2E0FE0185919491009711F0FC01C0
:1019F00009952C96F3E0CF30DF07A1F7DF91CF9167
:101A00001F910F9108959B01883070F49AE0899F8F
:101A1000B00111246B527F4F4AE050E0C9010E948F
:101A2000653690E080E008958FEF9FEF0895AAE07B
:101A3000B0E0EDE1FDE00C94F7359C0137552F3F08
:101A4000310509F068F4BE016F5F7F4F0E94030DFE
:101A5000892B31F489859A852A96E2E00C94133615
:101A60008091F7059091F805F7CFAAE0B0E0EBE39D
:101A7000FDE00C94ED3508E113E086E0C82E83E02C
:101A8000D82E95E7E92EFF24F39427E0922E35E037
:101A9000A32E33E0B32E88248394D6010D931D9397
:101AA0006D014AE050E0B701CE0101960E94653613
:101AB000F8013896DF01892D1D928A95E9F7898111
:101AC0009A81D80111969C938E938F8112968C9354
:101AD00012978D8113968C931397888514968C9307
:101AE0001497898515968C9315978B819C811796F1
:101AF0009C938E93169718961C9218978A8587FF49
:101B00003CC01E961C921E921D9780FF03C0D801F8
:101B100018968C9281FF04C0F8019085926090879E
:101B200082FF07C0D80118969C9118979460189668
:101B30009C9383FF04C0F80190859860908784FF90
:101B400007C0D80118969C911897906118969C939D
:101B500085FF04C0F801808580628087015F1F4F88
:101B6000FAE0EF0EF11C85ECE81681E0F80609F0CA
:101B700094CF2A96ECE00C940936F801B686A58637
:101B8000C4CFAAE0B0E0E7ECFDE00C94F135E5EB62
:101B9000F2E080E5DF011D928A95E9F7EAE0F6E0E0
:101BA00088E3DF011D928A95E9F785EBC82E82E074
:101BB000D82E7F0105E211E0F701D182C0824AE010
:101BC00050E0B801CE0101960E94653688E0FE0122
:101BD0003196D60101900D928A95E1F789859A8513
:101BE000D70113969C938E931297BAE0CB0ED11C1B
:101BF000E7E0EE0EF11C065F1F4F0537F1E01F070F
:101C0000D9F62A96E8E00C940D36B0E0A0E0EBE0BF
:101C1000FEE00C94F1356C017B0164E670E088E72E
:101C20000E94ED348C01E601EC0CFD1C17FD0BC08D
:101C3000FE01849164E670E00E9459358C01219682
:101C4000CE15DF0599F70E94CF3581E0011511050A
:101C500009F080E0CDB7DEB7E8E00C940D36809156
:101C6000BB059091BC05911103C091E089270895AF
:101C7000882369F062E070E087E093E00E94050E3F
:101C8000811103C08091BB0508951092BB0580911E
:101C9000BB05EBCFCF93C091BB058091BC058823DA
:101CA000D1F00E94FB04605A75418F4F9F4F6093A3
:101CB000B7057093B8058093B9059093BA05C11123
:101CC00008C062E070E085E093E00E94050E81119B
:101CD00005C0C091BB058C2FCF91089581E0809302
:101CE000BB05F7CF2F923F925F926F927F928F92B8
:101CF0009F92AF92BF92CF92DF92EF92FF920F939B
:101D00001F93CF93DF938091BC05882309F44CC0C7
:101D100083EB93E090939203809391032091B50518
:101D20003091B605DC0190E080E041E050E0FC013C
:101D3000E75FFC4FE4916D91E61791F0ED0121977B
:101D4000E883BC01E5E076956795EA95E1F7EA015D
:101D500002C0CC0FDD1F6A95E2F7BE012C2B372B9A
:101D600001968115D2E09D0711F73093B6052093B7
:101D7000B505232B59F58091BB058823A9F00E9456
:101D8000FB040091B7051091B8052091B905309179
:101D9000BA05601B710B820B930B6F3F7F4F8F4F08
:101DA0009F4710F40E942F0EDF91CF911F910F914A
:101DB000FF90EF90DF90CF90BF90AF909F908F906B
:101DC0007F906F905F903F902F9008958091B40521
:101DD0008111D1CF0E944A0E2091B5053091B605F0
:101DE0002115310541F280E041E050E0082F10E07C
:101DF0001A01082E02C0220C331C0A94E2F7B1012A
:101E000062237323672B11F48F5FF0CF9091B3059A
:101E100090FF95C0880F880F880F80930D01109256
:101E20001001895F80930E0183E08093110124E605
:101E300030E047E050E06BE071E088E70E948735D2
:101E4000892B09F098CFA80125E0440F551F2A954A
:101E5000E1F78091B30580FF84C0E3E9F3E080E21D
:101E6000DF011D928A95E9F7A4E7B1E000E711E0F0
:101E700088E7C82E81E0D82E97E0592E77247394F6
:101E80008D91E80129918E01240F352F311D2D549C
:101E90003C4FE82FF0E0ED56FC4F90E080E0652CE1
:101EA000681A872C082E01C0880C0A94EAF7790179
:101EB000A12CE701B9907E01B820662D6A196770E0
:101EC000962E062E000C770BDB2D01C0DD0F9A94A9
:101ED000EAF77195619571096770772701C0B6942B
:101EE0006A95EAF7BD2A6081962E9B289082A3947A
:101EF00068E0A612DECF019631968830910579F61A
:101F0000CA16DB0609F0BCCF04E610E020E230E0A0
:101F100043E953E060E488E70E94A835892B09F083
:101F20002ACFE101C095D0958091B5059091B60575
:101F3000C823D923D093B605C093B5051CCF82958D
:101F4000880F807680930D019801369527953695F8
:101F5000279520931001815E80930E01209311013B
:101F600066CF4D545C4F04E610E020E230E0D2CF63
:101F70009091D80692FB222720F9281779F080FB50
:101F800092F99093D8066091D7067091D80684E0B4
:101F900090E00E94B13682E00E943A0A0895DA0188
:101FA0009C012E5F3F4FF90145915491F901259114
:101FB0003491A217B30758F0FC013496859194919F
:101FC0000E9455360E94C20C90E080E008958FEF89
:101FD0009FEF0895DB01FC01329625913491421761
:101FE000530758F0FC01349665917491A901CD0115
:101FF0000E94553690E080E008958FEF9FEF08959E
:102000001F920F920FB60F9211242F933F934F936D
:102010005F936F937F938F939F93AF93BF93EF9350
:10202000FF938091E10082FF09C08091E20082FF6E
:1020300005C08091E1008B7F8093E1008091DA0000
:1020400080FF24C08091D80080FF20C08091DA00FA
:102050008E7F8093DA008091D90080FF9DC080E15F
:1020600089BD82E189BD09B400FEFDCF81E0809386
:10207000EB068091DE06811109C00E948C030E944C
:102080002D048091E20084608093E2008091E10061
:1020900080FF17C08091E20080FF13C08091E200B2
:1020A0008E7F8093E2008091E20080618093E20065
:1020B0008091D80080628093D80019BC85E080931D
:1020C000EB068091E10084FF2BC08091E20084FF49
:1020D00027C080E189BD82E189BD89B5982F9170C3
:1020E00080FFFBCF8091D8008F7D8093D8008091B6
:1020F000E1008F7E8093E1008091E2008F7E8093EB
:10210000E2008091E20081608093E2008091EC0621
:10211000882309F447C084E08093EB068091EB06A6
:102120008091E10083FF27C08091E20083FF23C0FC
:102130008091E100877F8093E10082E08093EB064D
:102140001092EC068091E1008E7F8093E1008091F7
:10215000E2008E7F8093E2008091E20080618093B4
:10216000E20042E060E080E00E94FB038091F0002A
:1021700088608093F000FF91EF91BF91AF919F91A4
:102180008F917F916F915F914F913F912F910F9020
:102190000FBE0F901F90189519BC1092EB0610926D
:1021A000DE0674CF8091E30087FD93E09093EB0609
:1021B000B5CF78941F921FB61F9211248F939F93CF
:1021C000AF93BF938091DA069091DB06A091DC0675
:1021D000B091DD060196A11DB11D8093DA069093A2
:1021E000DB06A093DC06B093DD06BF91AF919F9113
:1021F0008F911F901FBE1F9018959C014FB7F894A8
:102200008091DA069091DB06A091DC06B091DD06A4
:102210004FBF821B930B08952FB7F8948091DA0675
:102220009091DB06A091DC06B091DD062FBF0895EA
:10223000A3E0B0E0EEE1F1E10C94F03519821A82EE
:102240001B8288E5C82E81E0D82E10E000E0EE2445
:10225000E394F12CF60181916F018F3F09F446C0A0
:10226000F894E82FE295EF70F0E021A18F70A701BC
:1022700002C0440F551F8A95E2F7CA01922F982B8E
:1022800091A392A18095892382A3789400C0EBE565
:10229000F1E0B12C31E021912F3F09F450C0A22F81
:1022A000A295AF70B0E090968C9190E02F7002C034
:1022B000959587952A95E2F780FD41C0832FB82A2E
:1022C000330F51E0E036F50731F7F60131978081A1
:1022D0008F3F11F00E941D0780EA8A95F1F7E1E037
:1022E000F0E0EC0FFD1FE00FF11FB0820F5F1F4FFA
:1022F0000330110509F0AECF43E050E0BE016F5F3F
:102300007F4F8FEF91E00E944836892BE1F0898161
:102310009A81AB818093FF0190930002A093010208
:1023200081E08093FE010E940C119093FD01809347
:10233000FC0110E0812F2396E9E00C940C3680E03C
:10234000BECF10E022C01091FE01112391F38091C5
:10235000FC019091FD010E94FD10059750F343E0B0
:1023600050E06FEF71E08CE192E00E944836892BDB
:1023700041F38091FF0190910002A09101028093AE
:102380001C0290931D02A0931E021092FE01D2CF58
:10239000CF93C82F8091D80682FF0CC08091F9019D
:1023A0008C1741F00E940C119093F8018093F70173
:1023B000C093F901CF9108959091F901292F282315
:1023C00061F0809589238093F901882339F00E9478
:1023D0000C119093F8018093F701089590E080E04C
:1023E000F8CF9091D80692FF10C098E0899F900195
:1023F0001124622B6093CE010E94510A0E940C119D
:102400009093CD018093CC0108950E94510A0895C4
:102410008091E1059091E205892B89F00E940C11D1
:102420002091F7013091F801AC01421B530B81E080
:102430002091E1053091E2054217530708F480E04E
:1024400081700895CF938091BE05C0913F07C82B3E
:102450008091F9018823F9F08091E1059091E205DE
:10246000892B29F00E94081281110E944309809152
:10247000F901C82B809116018823B1F08091D7060D
:1024800087FF12C08EE124E931E090E0815080F4B2
:1024900091110E9443098091C50680958C239091EB
:1024A000C606892BCF91089586E02CE831E0EDCF68
:1024B000F90141919F01442349F39F5FE7CF809148
:1024C0001601882359F18091D70687FF27C00E9403
:1024D00022128093930140E250E06FEC71E082E9B8
:1024E00091E00E944836892BC1F080E2E2E9F1E0F8
:1024F000AFECB1E001900D928A95E1F7E091D3063F
:10250000F091D406309749F086E0809392010480E0
:10251000F581E02D82E991E0099508950E9422124B
:1025200080938A0148E050E06FEE71E08AE891E024
:102530000E944836892B89F388E0EAE8F1E0AFEEA3
:10254000B1E001900D928A95E1F7E091D306F09108
:10255000D406309711F30280F381E02D8AE891E0F0
:10256000DBCFCF93DF93EC014A855B856E857F855A
:102570000E94BD058B810E944E098C810E945509E5
:102580000E945F1286E0FE0111928A95E9F7DF91C1
:10259000CF910895CF93DF93EC018D8181FD14C01D
:1025A00082608D8380913F079B81892B80933F07B9
:1025B0008C810E945C090E945F12488559856E8556
:1025C0007F85CE010E94BD051092D0061092CF06E5
:1025D0008D8180FD03C0CE010E94B112DF91CF91A9
:1025E000089580911401877F8093140182E00E94F6
:1025F0004E098091140184FF06C08F7E80931401E0
:1026000082E00E945C098091140185FF06C08F7DE5
:102610008093140180E20E945C090E945F12089579
:102620001092BE05809116018823C1F08091D706D3
:1026300087FF14C0E4E9F1E08EE1DF011D928A9585
:10264000E9F790E080E00E948B0590E080E00E9436
:10265000660510923F070E945F120895ECE8F1E0D2
:1026600086E0EBCFAAE2B0E0E8E3F3E10C94F635C4
:102670008DEE96E02091F100DC012D93CD01B6E0C6
:10268000853F9B07B9F78091EE06833009F472C04D
:10269000B8F4813009F449C0823009F4B3C08091A4
:1026A000E80083FF96C28091ED069091EE069A3085
:1026B00008F08FC2E92FF0E0EF52F94C0C9432365B
:1026C0008A3009F48EC08B3009F471C0893039F733
:1026D0008091ED06813219F78091F1069091F20612
:1026E000009711F00297D9F68091E800877F8093D8
:1026F000E8008091E80082FF38C09091F30080915B
:10270000F200029731F48091F100813011F08630AF
:1027100021F48091F1008093E0068091E8008B77AE
:102720008093E8000E94DC03BACF8091ED06813AE5
:1027300009F0B5CF8091E800877F8093E800809111
:10274000F1069091F206892B61F468E081EE96E043
:1027500070E00E9488048091E8008B778093E80005
:102760009ECF60E090E080E0F3CF8091EB06811196
:10277000C0CF95CF8091ED06813A09F090CF80913E
:10278000F1069091F206892B09F089CF8091E8003B
:10279000877F8093E8008091E80080FFFCCF8091E4
:1027A00016018093F1008091E8008E77B9CF809177
:1027B000ED06813209F073CF8091F1069091F20617
:1027C000892B09F06CCF8091E800877F8093E80027
:1027D0000E94DC038091EF06809316010E94101383
:1027E0005ECF8091ED06813209F059CF8091E800EB
:1027F000877F8093E8000E94DC038091F00680933D
:10280000DF064DCF8091ED06813A09F048CF8091E7
:10281000E800877F8093E8008091E80080FFFCCF8C
:102820008091DF06BECF803899F0823809F0D1C19F
:102830008091F1068F70873008F0CBC18093E9005A
:102840008091EB0085FB882780F91092E90006C093
:102850008091E9069091EA06911182609091E800DA
:10286000977F9093E8008093F1001092F10080919F
:10287000E8008E77AAC1882309F498C1823009F054
:10288000A8C18091EF0681119BC18091F1068F70E4
:102890002FEF280F263008F09CC18093E90020918B
:1028A000EB0020FF8DC1933031F48091EB0080620A
:1028B0008093EB0085C19091EB0090619093EB00C9
:1028C00021E030E001C0220F8A95EAF72093EA0068
:1028D0001092EA008091EB008860EACF811179C103
:1028E0001091EF061F778091E3008078812B809311
:1028F000E3008091E800877F8093E8000E94DC037A
:102900008091E80080FFFCCF8091E3008068809395
:10291000E30082E0111183E08093EB065AC18058F6
:10292000823008F056C12091EF063091F0062C3D20
:10293000E3E03E07A1F583E08A838AE289834FB70B
:10294000F894DE01139620E03EE051E2E32FF0E040
:1029500050935700E49120FF03C0E295EF703F5F72
:10296000EF708E2F90E0EA30C0F0C7968D939D9364
:102970002F5F243159F74FBF8091E800877F809304
:10298000E8006AE270E0CE0101960E94880480911E
:10299000E8008B778093E8001CC1C096E7CF809158
:1029A000F1069091F206432F55274330510509F463
:1029B0004AC078F54130510509F485C08BE590E0B7
:1029C000EBEDF5E04230510509F003C12091E8003C
:1029D000277F2093E8002091F3063091F4068217B8
:1029E000930708F49C0140E02115310509F070C0FF
:1029F00041116EC08091E80082FDC9CF8091EB0645
:102A0000882329F2853019F28091E80083FFF2CF04
:102A1000BECF4132510509F447C04232510509F099
:102A2000D8C08330910508F0D4C0FC01EE0FFF1F21
:102A3000E558FE4F0190F081E02D88589E4FDC0153
:102A40008C9190E01DC0332721303105E9F021152C
:102A5000310579F022303105F9F02330310509F0E4
:102A6000B8C0E8E4F6E0E4918E2F90E0E8E4F6E008
:102A700007C0E8E9F6E0E4918E2F90E0E8E9F6E09F
:102A8000009709F4A6C0A2CFECE7F6E0E4918E2F00
:102A900090E0ECE7F6E0F4CFE6E6F6E0E4918E2F86
:102AA00090E0E6E6F6E0ECCF8330910508F091C0C7
:102AB000880F991FFC01EF57FE4F0190F081E02D28
:102AC00089E090E083CF82E190E0E6E3F6E07ECF1C
:102AD0008091EB06882309F45ACF853009F457CF4B
:102AE0008091E80083FD53CF8091E80082FD82CF82
:102AF0008091E80080FF78CF9091F3008091F20000
:102B00002115310519F08830910550F041E0089702
:102B100009F040E08091E8008E778093E80064CF70
:102B200044914093F1003196215031090196E8CF4C
:102B3000803809F04EC08091E800877F8093E800DC
:102B40008091EC068093F10092CE811142C01091E9
:102B5000EF061230F0F58091E800877F8093E8005F
:102B60001093EC060E94DC03112311F084E005C0F1
:102B70008091E30087FDFACF81E08093EB0642E08D
:102B800061EC81E00E94FB0342E261EC84E00E9480
:102B9000FB0342E261EC82E00E94FB0342E260EC54
:102BA00083E00E94FB038091EB0613C08091EF0647
:102BB000813079F481E0933009F080E08093EA0677
:102BC0001092E9008091E800877F8093E8000E94DE
:102BD000DC038091E80083FF0AC08091E800877FD2
:102BE0008093E8008091EB0080628093EB00AA96CE
:102BF000E3E00C9412361F920F920FB60F9211243D
:102C00002F933F934F935F936F937F938F939F93F4
:102C1000AF93BF93CF93DF93EF93FF93D091E900EE
:102C2000DF708091EC00C82FC17080FDC0E8109269
:102C3000E9008091F000877F8093F00078940E94F3
:102C400032131092E9008091F00088608093F000C8
:102C5000CD2BCF70C093E900FF91EF91DF91CF9121
:102C6000BF91AF919F918F917F916F915F914F91A4
:102C70003F912F910F900FBE0F901F901895EFED81
:102C8000F5E0128E138E8FEA90E09183808385E0C9
:102C9000848F28E833E13383228322E330E0378BCB
:102CA000268B28EC30E0318F208F158E178E168EF4
:102CB00020E530E031A320A382A30E94C20C0E9431
:102CC00010131092D8061092D706E8EDF6E0808136
:102CD000846080836091D7067091D80684E090E08C
:102CE0000E94B1360E94DE0C0895AEE1B0E0EBE741
:102CF000F6E10C94EB35A090B706B090B80681E0F1
:102D000090E09093B8068093B70610E027E2822EF9
:102D100025E0922E39E2632E35E0732E89E0C82E2D
:102D200085E0D82E00E01EC04E2D21E030E01111CC
:102D300008C0F701EE0FFF1FEC0DFD1D859194916A
:102D40009C01602F812F0E94670B8FEFE81AF80A11
:102D5000E5E0EE16F10441F70F5FFAE0CF0ED11C6B
:102D6000033019F0F12CE12CDFCF21E030E011111C
:102D700004C0F401859194919C0141E060E0812FB1
:102D80000E943C0B21E030E0111104C0F301859159
:102D900094919C0140E060E0812F0E943C0B1F5FFA
:102DA000143009F0BBCF0E943F161A8219821C8290
:102DB0001B821E821D8218861F8288EC90E09A87F3
:102DC000898705ED10E04AE050E0B801CE01019698
:102DD0000E94B736065F1F4F053281E0180799F74A
:102DE0007E01EBE0EE0EF11C8AE0F70111928A956C
:102DF000E9F74AE050E0B801C7010E94B736065F24
:102E00001F4F0537F1E01F07A1F77E0185E1E80EAE
:102E1000F11C8AE0F70111928A95E9F78FEF9FEF95
:102E20009A8F898F87E08E8F4AE050E0B801C70102
:102E30000E94B736065F1F4F053CF1E01F07A1F760
:102E4000B092B806A092B7066E96EEE00C940736E4
:102E500080E00E94130B60E088E290E00E949336CD
:102E60000E9475160E942C0B81E00E94130B08959E
:102E7000CF92DF92EF92FF928FEF9FEF4430510598
:102E800008F46CC0FB01C080D180E280F3800E9416
:102E900010138091D706C0FA80F9B701A601769584
:102EA00067955795479540FB81F9B701A60122E048
:102EB00076956795579547952A95D1F740FB82F906
:102EC000B701A60133E076956795579547953A95F2
:102ED000D1F740FB83F9B701A601E4E07695679549
:102EE00057954795EA95D1F740FB84F9B701A601BC
:102EF000F5E07695679557954795FA95D1F740FB9C
:102F000085F9B701A601A6E076956795579547958F
:102F1000AA95D1F740FB86F9B701A601B7E07695EF
:102F2000679557954795BA95D1F740FB87F98093F8
:102F3000D7068091D806D0FA80F9D1FACC24C0F80F
:102F4000C0FA81F98093D8066091D7067091D806AF
:102F500084E090E00E94B13690E080E0FF90EF9036
:102F6000DF90CF9008950E9410132FEF84E39CE030
:102F7000215080409040E1F700C0000088E19AE0D5
:102F80000FB6F894A895809360000FBE90936000F0
:102F9000FFCF882321F00E944E090E945F120895FE
:102FA000882339F090913F07982B90933F070E9418
:102FB0005F120895882321F00E9455090E945F1234
:102FC0000895882321F00E945C090E945F120895F1
:102FD000882339F19CEF980F913A28F40E94070555
:102FE0000E945F12089590E2980F983050F4877015
:102FF00091E001C0990F8A95EAF7892F0E9455093F
:10300000EFCF9BE5980F933028F490E080E00E948A
:103010008B050895885A8B3120F490E080E00E945F
:1030200066050895FF920F931F93CF93DF93F82EB9
:103030000091CA061091CB060115110509F449C08B
:103040001092C9061092C8061092C5061092C606C4
:10305000D8011696CD91DC919E013A9521153F41FC
:1030600008F4D07ED1E0C11101C0D0E0D80119969A
:10307000ED91FC911A97309731F01B966D917C91F0
:1030800080E00995D823DD2339F08CEF8C0F813A4D
:1030900030F58C2F0E940705FF2099F0E091CA06B9
:1030A000F091CB06808584FD0CC08091C7068823F3
:1030B00041F0808191819C01215031092F333E479D
:1030C000A0F00E945F121092CB061092CA061092D6
:1030D000C706C801CDB7DEB7E5E00C9410360E94F4
:1030E0005F128C2F0E94E817D7CF0E94C305E9CF4B
:1030F000CF93DF93EC010E94E817CE010E947B0A78
:103100009E01205E31092830310510F0CD2B29F4C5
:103110000E94DA17DF91CF9108950E94C917FACF64
:10312000CF93C82F8823B9F18CEF8C0F813AA8F583
:1031300080911601882301F18091D70687FF1CC07A
:10314000EC2FE695E695E695F0E0EE56FE4F82818F
:1031500090E04C2F477021E030E002C0220F331F77
:103160004A95E2F782239323892B81F08C2F0E94CA
:1031700007050E945F120AC0ECE8F1E082E991E0E5
:103180002191C21799F38E179F07D1F78C2F0E94B8
:1031900032050E945F12CF91089580E28C0F883033
:1031A00048F4C77081E001C0880FCA95EAF70E9411
:1031B0005C09EFCFEBE5EC0FE33040F4F0E0E15ECB
:1031C000FE4F808190E00E948B05E5CFC85ACB313D
:1031D00010F7EC2FF0E0EE0FFF1FEE5DFE4F808149
:1031E00091810E946605D7CF1F93CF93DF93182F4D
:1031F000C091FF05D0910006893321F0C091FD05F3
:10320000D091FE05812F0E949018209739F4812FCC
:103210000E94E817DF91CF911F9108958FE99FE0F9
:103220000197F1F700C000002197EFCFB0E0A0E0D8
:10323000ECE1F9E10C94EF357C015B01C42FD22F56
:10324000FC0185818823A9F04093CE060E940C11D1
:103250009093CD068093CC06C77081E001C0880FA3
:10326000CA95EAF70E94E117CDB7DEB7EAE00C9401
:103270000B361091CE06141338C08091CC06909175
:10328000CD060E94FD106C01B701C5010E94170D0B
:10329000C816D90650F5C0E2CD0F1D17C1F080E267
:1032A000810F883048F4177081E0012E01C0880F2B
:1032B0000A94EAF70E94DA17C83048F481E09D2F9B
:1032C000977001C0880F9A95EAF70E94E117802F46
:1032D0000E94F418C83040F6D77081E001C0880F12
:1032E000DA95EAF70E94DA17BFCFC77081E001C014
:1032F000880FCA95EAF7F6CFB0E0A0E0E2E8F9E17E
:103300000C94F235E82FF0E0E55AFA4FD490282FCC
:1033100026952695269530E0F901E55BFA4F049154
:10332000877010E0082E02C0159507950A94E2F701
:1033300001701127F901E55CFA4FE490F12C082E99
:1033400002C0F594E7940A94E2F791E0E922FF24A1
:10335000F901E55DFA4FC491D0E002C0D595C7955B
:103360008A95E2F7C170DD270115110519F081EE8C
:103370000E949018E114F10419F086EE0E94901852
:103380008D2D0E94F418E114F10419F086EE0E94CC
:10339000E8170115110519F081EE0E94E817CD2BF1
:1033A00019F08CE20E94F418CDB7DEB7E7E00C9478
:1033B0000E361F93CF93DF93EC011AE088818823A8
:1033C00009F43EC08130C9F599818A81913029F490
:1033D00022960E94F4182196F1CF923021F4229681
:1033E0000E949018F8CF933021F422960E94E8179B
:1033F000F2CF943011F02196EECF229630E020E00B
:10340000AE014F5F5F4F8053990B8A30910550F0AA
:103410002150310900F38FE99FE00197F1F700C0D7
:103420000000F6CF129FB001139F700D11249C0174
:10343000260F371F8981EA01E3CF0E947C19CBCF89
:10344000DF91CF911F9108959091BD05923071F455
:103450008A3050F490E009966AE070E00E941E36CF
:10346000875A0E94F41808958650FBCF96EF980F64
:10347000963020F0805D0E947C190895895AFBCF18
:103480008F929F92AF92BF92EF92FF920F931F93F2
:10349000CF93DF934B015C01D091BD058CE1E82E09
:1034A000F12C07E010E021E0D501C4010E2C04C08E
:1034B000B695A795979587950A94D2F7C82FCF70A0
:1034C000222339F0D43051F4CA3040F080E00E9419
:1034D000241A8C2F0E94241A20E005C0C111F9CFB4
:1034E00004301105B4F30150110984E0E81AF10821
:1034F0000F3F1007C9F6DF91CF911F910F91FF90F9
:10350000EF90BF90AF909F908F900895CF93DF93EF
:10351000EC010E947B0A9E01205E310928303105B2
:1035200010F0209741F40E94E1178C2F0E94901810
:10353000DF91CF9108950E94D017F7CF662329F02D
:1035400020913F07226020933F079C0130522115B4
:10355000304308F499270E94861A0895B0E0A0E04D
:10356000E4EBFAE10C94F1356C018B01E42E8091CF
:10357000140182FF87C0C0910506D0910606CC15C4
:10358000DD0521F0C114D10409F07CC08091140143
:103590008B7F8093140181FD6EC080910306909112
:1035A0000406A801481B590B81E0209112013091BB
:1035B00013014217530708F480E08170F82E8091C0
:1035C0001401F0FA81F980931401FE0183E0F6956D
:1035D000E7958A95E1F7EE71FF27E154FA4F2081D4
:1035E0003181AE014F70552781E090E002C0880F15
:1035F000991F4A95E2F7FF2009F43FC0822B932BD5
:10360000918380838091BE0581FF08C08091140161
:1036100080618093140182E00E9455098091BE056B
:1036200085FF08C08091140180628093140180E2BC
:103630000E9455096F2DCE010E949E1AEE2031F096
:103640008091FA0585FF02C086FF30C08091FD059C
:103650009091FE050E94090B809105069091060647
:103660009C0130522115304308F499270E947818A4
:103670000E94F11217C081E0A0CF8095909582231F
:103680009323BECFC601905281159043A0F4C6018A
:1036900099270E94781880910506909106068C154E
:1036A0009D0531F31093040600930306CDB7DEB7F2
:1036B000E8E00C940D36C601ECCF0F931F93CF9327
:1036C000DF938C01EB010E94861A209741F4C80118
:1036D0000E947818DF91CF911F910F9108958FE983
:1036E0009FE00197F1F700C000002197EECFAEE117
:1036F000B0E0EDE7FBE10C94E7354B8B5C8B6D8B19
:103700007E8B8F8B988F882349F08091B7019091A1
:10371000B80101969093B8018093B701888D81110B
:1037200010923F07188A198A1A8A86E0FE0173965A
:10373000DE011A9601900D928A95E1F78091D806E4
:1037400082FF1EC08091E1059091E205892BC1F0B6
:103750000E940C112091CC013091CD01821B930B62
:103760002091E1053091E2058217930720F08091C6
:10377000CE0182FFE7C10E94081281110E94430915
:103780008E85882389F061E0CE010A960E94B30CF1
:103790006C018F8520E5C2162CE7D20689F48823B8
:1037A00029F181E0809315010A851B852C853D85D3
:1037B0004E855F85688979898A890E94EC2ACDC007
:1037C00031E5C3163CE7D30629F4882379F00E943B
:1037D000A02BEACF42E5C4164CE7D40639F488237F
:1037E00029F0809115018111F2CFDBCF9AE0E92E0B
:1037F00096E0F92E412CB12CA12C88248394912C95
:10380000BE016F5F7F4F7A8F698F22242394F70167
:103810004081518166246A94762C20E0822F90E0CA
:10382000FC01EE0FFF1FE40FF51F60817181611530
:10383000710531F0C616D70609F43C012F5FEECFB3
:10384000312CFFEF6F167F0609F448C0F701448161
:1038500030901501832D411180E0F82FF1703F2E3B
:10386000F701558086819F85992309F4F7C033209D
:1038700009F4F4C00091F5051091F605511013C03C
:10388000A401062C01C0440F0A94EAF7842B868316
:1038900080910706909108068017910720F41093F5
:1038A000080600930706C40102C0880F991F2A95D5
:1038B000E2F70197F70126812817190679F480911C
:1038C000B5069091B606009709F44BC00E94FD1012
:1038D0000817190708F045C0F70124824328FFEFB5
:1038E000AF1ABF0A27E0E20EF11C38E0A316B104BC
:1038F00009F08DCF8F85882309F410C1442009F485
:103900000DC10E940C119093B6068093B50680916C
:103910004206883010F591E0980F9093420699E0A6
:10392000FE013A96DE01119601900D929A95E1F70B
:103930004DE0849FC00111248D5B994F29E0FE0169
:103940003196DC0101900D922A95E1F72FEF3FEFC0
:10395000FC0132872187D486C3866E96E2E10C94FF
:1039600003368091B3065091B406982FF0E0E0E062
:10397000851314C09093B306EE16FF0609F4AECF7C
:1039800090E0FC01EE0FFF1FE555F94FB182A082D8
:103990000196837099278093B406A0CF682E712C6E
:1039A000F301EE0FFF1FE555F94F20813181F7E05C
:1039B000F29FD001F39FB00D1124A65FB94F2D9156
:1039C0003C9111973E8F2D8F40E020E030E0E32FB7
:1039D000F0E0EE0FFF1F6D8D7E8DE60FF71F00816B
:1039E000118101151105E1F0F7010190F081E02D41
:1039F000FC8FEB8F20E005C00617170709F4432D55
:103A00002F5FE22FF0E0EE0FFF1F6B8D7C8DE60F36
:103A1000F71F608171816115710571F73F5FD7CF25
:103A20004423C9F0F701231708F0FD012482EE16A4
:103A3000FF0621F49093B306342E50CF981305C09F
:103A4000AE17BF0711F49F5F937093012F5F3F4F35
:103A5000822F83708DCFF0E0E0E0F7CF90E051103F
:103A600020C0B40102C0660F771F2A95E2F79B01C0
:103A7000215031098217930731F4442309F44CC0D3
:103A8000C5010E943406C401062C01C0880F0A94A7
:103A9000EAF7982F9095F701868189238683352C44
:103AA0001DCFAC01062C02C0559547950A94E2F74C
:103AB000BA01617077279C01215031098223932339
:103AC000892B31F5672B21F1F70182819381892BB5
:103AD000E1F0E98DFA8D27E011922A95E9F70E942D
:103AE0000C11282F8B839C8334E03D83F701828166
:103AF0009381782F8887998709811A813C8144E0D6
:103B00005E816F81892F0E94EC2AF7011582BBCF5D
:103B1000F42FF1705F2EB7CF532CB5CF9091B30631
:103B20008091B406981729F00E94AF2B411015CF51
:103B30003BCE0E94572B1092B6061092B5060E94FB
:103B40006206F4CF82E00E943A0A15CEA6E0B0E009
:103B5000ECEAFDE10C94F735909322028093210268
:103B6000811520E2920730F40E9478182696E2E050
:103B70000C94133680EF89838A830E940C11816034
:103B8000682F9C838B8349815A817C8181E090E0FE
:103B90000E94771BEBCF0F931F93CF93DF938C0182
:103BA000EB016BE272E08C2F0E94030D892BA1F4D4
:103BB0008091FD059091FE050E94090BDD27CD5DEA
:103BC000DD4F8881F801128218828330F1F048F4C9
:103BD000813059F0823081F0DF91CF911F910F91A8
:103BE00008958430B9F08530B9F780912B02909117
:103BF0002C02009789F306C080912D0290912E022D
:103C0000009799F30E94A61DE7CF80912F02909113
:103C10003002F6CF8091310290913202009791F7F5
:103C200020912B0230912C0280912D0290912E0236
:103C300021153105F1F2009729F7C901E3CFA6E07C
:103C4000B0E0E5E2FEE10C94F73590932202809318
:103C50002102811520E2920730F40E94861A2696EE
:103C6000E2E00C94133680EF89838A830E940C1162
:103C70008160682F9C838B8349815A817C8181E09C
:103C800091E00E94771BEBCFCF93DF93EC010E9472
:103C90001F1E8091FD059091FE050E94090BCE012B
:103CA0000E94A61DDF91CF9108950F931F93CF938C
:103CB000DF938C01862F6BE272E00E94030D892B4B
:103CC000B1F4C0912B02D0912C02209781F0F80121
:103CD0008281833051F4CE010E94441ECE010E94A5
:103CE000441ECE010E94441E02C08430D0F7DF91F2
:103CF000CF911F910F9108950F931F93CF93DF934F
:103D00008C01EB016BE272E08C2F0E94030D892B7A
:103D100009F05CC0FE01FF27D80112968C91129722
:103D2000ED5DFD4F8130B9F415969C9192FF02C074
:103D300080830AC090FFFCCF82E0808380912D02B7
:103D400090912E020097B9F480912B0290912C0251
:103D50000097E1F110C08230B9F515968C9182FD83
:103D600028C080FD0BC083E0808380912F0290915A
:103D70003002009701F10E941F1E28C084E080835A
:103D800080913102909132020097A9F780912B0225
:103D900090912C020097F9F00E94441E80912D0210
:103DA00090912E02009739F780912B0290912C026E
:103DB000E2CF85E0808380912B0290912C020097C6
:103DC00029F00E94441EF0CF86E08083DF91CF91DE
:103DD0001F910F91089580912D0290912E02B8CFDE
:103DE000A7E0B0E0E6EFFEE10C94E7357C01DC01F2
:103DF00014968C91882309F457C161E0C7010E9491
:103E0000B30C8C01F7018581882319F18091CF06CD
:103E10009091D0060097E9F008171907D1F099277B
:103E2000F4E0880F991FFA95E1F7FC01E65CFD4F7D
:103E30002081246020838B5C9D4FDC010D931C93BB
:103E40000E94CA1210923F0761E0C7010E94B30CA2
:103E50008C01F7018581882309F4B1C0C801975707
:103E60008038910508F0DEC0D02EFFE0F01708F48E
:103E70000BC18FEF93E00E947536811105C105ECEF
:103E800011E0D11036C019821A821B821C8299243B
:103E90009A9468013FEFC31AD30AC8010E9475368D
:103EA00089831A82882309F4EFC0813009F081C028
:103EB000580142E0A40EB11CC6010E947536C82EFE
:103EC0008A83882309F4E0C0C5010E947536D82E84
:103ED0008FEF8C0D8330D8F4580153E0A50EB11C40
:103EE000DB82DD2021F0CE0101960E94D9198501E7
:103EF000D0CF011524E0120709F4C6C0C8010E9402
:103F00007536811101C0DA940F5F1F4FBACF8BEF66
:103F10008C0D833030F5C8010396DB825C01DD2017
:103F200031F35801A4E0AA0EB11C0E9475368C83AF
:103F30008823E9F28B819C818130BFEF9B0710F0D1
:103F4000982F8827E6E0CE1631F0F7E0CF1631F053
:103F50000E94441ECCCF0E941F1EC9CF0E94A61DE6
:103F6000C6CF24E0C212C3CF580134E0A30EB11C67
:103F7000C80103960E947536DD2009F485C08823A8
:103F800009F482C08150990B989E9001999E300D42
:103F900011244D2D4150550BCA01820F931F0197DB
:103FA00008F4A5CFAFE9BFE01197F1F700C000001A
:103FB000F6CFCE0101960E94D919560198CF68011B
:103FC000E7E5DE1AFFEFCF16D10409F058F56BE2F2
:103FD00072E08C2D0E94030D892B21F5C60174E03F
:103FE000880F991F7A95E1F7FC01EB5CFD4F228168
:103FF0002130A1F520912B0230912C02232B91F03E
:1040000020912D0230912E02232B61F020912F025E
:10401000309130024091310250913202242B352BE5
:10402000232B21F1D70115965C90552009F440C04F
:104030000E35BCE71B0729F10F35ECE71E0741F0F1
:104040000D35FCE71F07A1F5809100018823C9F019
:104050001092000180E00E94121816C0223011F761
:1040600020912F0230913002232BE1F2FC01E65C1B
:10407000FD4F20812E7F20838B5C9D4F0E94CA12B2
:10408000D1CF81E0809300018091CE01877061F0F3
:10409000D70115968C91882339F08091D80682FF3C
:1040A00003C082E00E943A0A2796E2E10C940336AC
:1040B00080910001882309F45AC7480120EE821A32
:1040C00091084090F9018091CB01482A8091BE056A
:1040D000482A38E08316910408F086C098012770BA
:1040E000332781E090E001C0880F2A95EAF7552038
:1040F00009F477C0482AD7018D919C910E94A409A8
:1041000021E030E0390102C0660C771C8A95E2F7A5
:10411000E091CA06F091CB06FF83EE832090B201B6
:104120003090B3011D822D81E22FF0E0EE0FFF1FD2
:10413000EA5FFC4FC080D180C114D10409F47BC771
:10414000411005C0D60112968C91811187C0F601ED
:10415000838190E086219721892B09F47FC0808597
:10416000982F977009F487E0F8E08F16910408F013
:1041700055C0552009F44EC086958170882309F4F6
:104180006DC0D601AD90BC900A151B0519F45520E1
:1041900009F464C0EE81FF81CE16DF0609F45EC02B
:1041A000D6011D96ED91FC91309721F080818823F6
:1041B00009F454C0642DC6010E941406882309F432
:1041C0004DC00A151B0509F063C70115110509F457
:1041D00064C7511064C7A214B30409F03FC0512C46
:1041E0005EC78095482287CF552009F40DC71093EC
:1041F000B3010093B2010E94FB046093C106709367
:10420000C2068093C3069093C4061092C90610920A
:10421000C80671CF82FB882780F9B0CF5520F1F016
:104220008170ACCF0E94E81759C70497813A910575
:1042300048F48A2D0E943205552009F498C60E9440
:104240005F1222CF0E945F128FE39CE90197F1F782
:1042500000C000008A2D0E949018EECF9D819F5FC4
:104260009D8361CFFC01208131810217130709F082
:1042700077C6511077C61092C70680E00E941218C8
:1042800076C6902F812FBBC6D9011C964D915C91AB
:104290001D971E966D917C91C9010E94BD05F60186
:1042A000858181FFDCC6C6010E94B1128091CF06D4
:1042B0009091D0060817190709F0D1C61092D006C0
:1042C0001092CF06CCC606333CE7130709F4ABC007
:1042D00008F4A7C007335CE7150729F485E001C09F
:1042E00080E00E948D0BD70115968C91882309F4EC
:1042F00041C017FF3FC00E94B0058093B501909167
:10430000BD05913029F481FF03C089E30E94F418B0
:104310008091BE058093B4011092BE0510923F07B4
:104320008091BD05823009F4A9C008F07EC08823C1
:1043300009F497C0813009F498C08FE39CE9019794
:10434000F1F700C00000B8017F7790E080E00E94A4
:10435000401A8091BD05823009F4C6C008F0A7C09C
:10436000882309F4B2C0813009F4B3C08091B4014C
:104370008093BE058091FA0580FFFBC00E940C115E
:104380006C01D70115968C91882309F4C7C08091E0
:10439000140182FF08C02AE032E040E0B60190E05C
:1043A00080E00E94AE1A0431BCE71B0709F4B2C0DA
:1043B0000531ECE71E0709F4A2C00331FCE71F0733
:1043C00029F480911401816080931401C8019052F6
:1043D0008115904308F0B0C01092060610920506B1
:1043E000F7012581222309F47FC21092CE06C8016D
:1043F0009057839708F078C284E090E00E947D3661
:104400009093D8068093D706F801E150F047E23246
:10441000F10508F0ACC1E552F94C0C94323682E05B
:1044200060CF83E05ECF84E05CCF8430D9F185300B
:1044300009F083CF6091FD057091FE058BE191E05D
:104440000E945D1B6091FD057091FE0585E290E084
:104450000E945D1B6091FD057091FE0588E290E071
:104460000AC082EE0E94901868CF6091FD0570919D
:10447000FE0588E193E00E945D1B5FCF8091B5014E
:1044800080FD03C083E50E94F41882EE0E9490181C
:10449000EFE3FCE93197F1F700C0000087E50E94E7
:1044A000F4184BCF86EE0E94F41888E1F8CF8430E0
:1044B00021F1853009F05ACF6091FD057091FE051C
:1044C00088E290E00E945D1B51CF82EE0E94E817C7
:1044D0004DCF8CE20E94F4188091B50181FF46CF48
:1044E00089E30E94F41842CF82EE0E94E81780917F
:1044F000B50180FD3BCF83E5F4CF88E2F2CF909108
:104500001401892F8E7F90FF8160809314010E9497
:10451000F1125CCF809114018E7FF7CF809114014E
:104520008F7E013E110531F0053E1105E9F48091C1
:1045300014018F7D809314018091140180FF19C0B4
:10454000D70115968C9108321105F0F40E31110542
:1045500008F06BC00430110548F5882351F0109223
:1045600006061092050605C0C801905281159043B9
:1045700018F7F801E851FC47E730F10508F030CFB3
:10458000E350F94C0C9432360933110558F40D32CE
:10459000110518F40B32110501F79091FA0592FDFF
:1045A000DCCF08C004361105C1F3D7CF9091FA05CE
:1045B00094FDD3CF882309F4A6C08091F90190918E
:1045C000BE05892B8D7FB1F110920606109205066B
:1045D0008091FA0581FD2EC0F80143E0F695E7953C
:1045E0004A95E1F7EE71FF27E154FA4F98012F70D9
:1045F000332781E090E002C0880F991F2A95E2F7E7
:1046000080959095208131818223932391838083AB
:1046100060E0C8010E949E1A8091F9018D7F0E947E
:10462000C81182E00E943A0A2FCD9091FA0593FDBD
:1046300094CFC0CF89E0F701AAE0B2E001900D92DB
:104640008A95E1F710920D0210920C0280910506F6
:104650009091060608171907D1F52091FA0525FF54
:1046600036C03091140131FF02C026FF30C02091C6
:104670000306309104065601A21AB30AB7010E943C
:10468000170DA816B90618F58091BE0581FF08C060
:104690008091140180618093140182E00E94550989
:1046A0008091BE0585FF08C08091140180628093CF
:1046B000140180E20E9455096091140166956170B1
:1046C00080910506909106060E949E1ADDCC80918D
:1046D000F9019091BE05982B2091140191FB21F9CD
:1046E000209314018D7F0E94C81110930606009339
:1046F0000506D0920406C0920306809114018460DE
:10470000809314018ECF970140E0B601C8010E944A
:10471000AE1ABACC06E221EE41EE6AE17CE7C701AF
:104720000E941619B1CC07E225EE45EE6BE17CE75D
:10473000F6CF06E221EE40EE68E17CE7F0CF07E23B
:1047400025EE44EE69E17CE7EACF06E221EE42EE97
:104750006CE17CE7E4CF07E225EE46EE6DE17CE715
:10476000DECF08E221E045EE6EE17CE7D8CF809114
:10477000D70681608093D70695C08091D80688605F
:104780008093D8068FC08091D7068260F3CF809146
:10479000D7068460EFCF8091D7068860EBCF8091F9
:1047A000D8068160EDCF8091D8068260E9CF8091F4
:1047B000D7068061DFCF8091D7068062DBCF809102
:1047C000D7068064D7CF0E9410138091D7068068E7
:1047D000D1CF8091D7068C60CDCF8091D8068360F1
:1047E000CFCF8091D7068E7FC5CF8091D806877FA7
:1047F000C7CF8091D7068D7FBDCF8091D7068B7FA5
:10480000B9CF8091D706877FB5CF8091D8068E7FAC
:10481000B7CF8091D8068D7FB3CF8091D7068F7E9A
:10482000A9CF8091D7068F7DA5CF8091D7068F7BAA
:10483000A1CF0E9410138091D7068F779BCF8091D4
:10484000D706837F97CF8091D8068C7F99CF8091B0
:10485000D70682FB992790F921E0922790FB82F9F5
:1048600090FB83F987CF8091D806982F909591700F
:104870008E7F892B90FB81F983CF9091D706892F6A
:104880008F7B96FF806476CF0E9410139091D7069D
:10489000892F97FB87F980586DCF61E08EE090E01B
:1048A0000E9493366091D7067091D80684E090E01C
:1048B0000E94B1360E941013E7CB60E0EFCF9091D9
:1048C000D706892F8F7E94FF806154CF9091D706B1
:1048D000892F8E7F90FF81604DCF9091D806892FD0
:1048E000877F93FF88604CCF0631FCE71F07A9F54F
:1048F0008091BE05982F9A7A3091F90530FF04C057
:10490000482F447409F090E031FF04C0482F4171F2
:1049100009F090E032FF04C0482F487809F090E099
:1049200033FF03C0827209F090E0222361F081E03E
:10493000911101C080E08093B60189E2911185E375
:104940000E9432057CCC8091B601811104C089E2BD
:104950000E94070574CC85E3FBCF07373CE71307BC
:1049600009F45AC008374CE7140709F460C0222341
:1049700081F003305CE7150709F479C008F05CC0EA
:1049800001159CE7190709F465C001301C4709F4BB
:1049900074C0F70187819085009709F47CC00E945C
:1049A0002508182F092FF701B580C680C2943FE073
:1049B000C3228091CE01877001F1AB2CBB20F1F0B6
:1049C000892F807F803461F080E2810F8830A8F0E9
:1049D000892F807E803221F4123078F0CC2069F06B
:1049E0008091D80682FF09C082E00E943A0A809135
:1049F000CE018770AA24A3948111A12C902E9294A9
:104A00002FE09222FBE0F91508F4B7C0E92DF0E0A1
:104A1000EC5FF84C0C94323681E0222351F00E9476
:104A2000510A43E062E081E00E940D0A2DCB82E052
:104A3000F4CF0E942D0AF5CF0B35BCE71B0749F1D7
:104A40000C35ECE71E07D9F00A351C4709F0A1CF59
:104A500081E01CC00E9410132FEF34E34CE0215082
:104A600030404040E1F700C000000E94EA046FEFD0
:104A70007FEF90E080E00E94B1360E94B3178091F2
:104A8000D80682FB882780F991E089270E94B80F19
:104A900080CF80E0FBCF858100811181882369F080
:104AA000C8010E943E0CD82E682FC8010E94EE0952
:104AB000B8018D2D0E94100C72CFC8010E94A4096C
:104AC000D82EF6CF202F2F70D22E802F807F19F076
:104AD000D29490EFD922BB20A9F0DD2059F080E2DA
:104AE000810F883010F0111107C08D2D0E945C09D4
:104AF0000E945F12812F3FC080913F07D82AD09239
:104B00003F07F6CF812F0E94E817DD20B1F180E248
:104B1000810F883010F0111104C08D2D0E945509AD
:104B200003C08D2D0E944E090E945F1226C0302FB7
:104B30003F70D32E802F807F803219F0D29480EF87
:104B4000D822112351F0113009F498C0BB2009F488
:104B5000A4C0CC2009F448C0CDCF8091D80682FDF6
:104B60003FC0BB20B9F1DD2029F08D2D0E945C09EA
:104B70000E945F1280E00E949018E92DE850FF0B20
:104B8000349710F40E94B005812F902F0E94600A84
:104B90008111BDC11092B8011092B701AA20A9F0ED
:104BA0008091CE0180FD11C0F70115828695869512
:104BB00086950E94510AC7010E94F01E8091CE0185
:104BC0008695869586950E942D0A60E0C7010E9411
:104BD000B30C6ACA80E00E94E817DD2071F29DCF15
:104BE000BB2091F1C11004C08D2D0E94E117C5CFEB
:104BF00041E0C41211C08090F9018D2D8821D81692
:104C000009F4BBCF0E940C119093F8018093F70137
:104C1000D828D092F901B1CF8091FB05823008F4F9
:104C2000ACCFC812AACF8D2D0E94E1178D2D0E9406
:104C3000DC118091CB019D2D9823D91609F49DCFCD
:104C4000D82AD092CB0199CFC1100AC08D2D0E94D5
:104C5000DA178D2D0E94DC118D2D0E9469098DCFF0
:104C60008091FB05823008F488CF51E0C51285CFD2
:104C70008091BE058D2109F480CFE8CF8091010697
:104C8000BB2021F08C1508F478CFAECFC81608F001
:104C900074CF8D2D0E94DA1770CFCC20D1F3809184
:104CA000FF0590910006193321F08091FD05909148
:104CB000FE050E94090B812F0E94E8175ECF802F0E
:104CC00086958695837069F0813009F056CF812FE3
:104CD000902F9370B11002C080E090E00E946605B2
:104CE0004CCF812F902F9370B11002C080E090E0E4
:104CF0000E948B0542CF802F837091F5B1103DCF7C
:104D0000412F429546954770440F440F812F8F7075
:104D1000042E01C0880F0A94EAF7212F207114FF96
:104D200007C02FE030E001C0220F4A95EAF7209536
:104D3000302F369536953370323069F050F440910B
:104D40000202313029F0822B84230E945D0A15CFA4
:104D5000842B822BFACF282B809102028227F5CF59
:104D60008695BB2011F0802F8170882309F405CF30
:104D7000412F429546954770440F440F812F8F7005
:104D8000042E01C0880F0A94EAF7212F207114FF26
:104D900007C02FE030E001C0220F4A95EAF72095C6
:104DA000302F369536953370323069F050F440919B
:104DB0000302313029F0822B84230E940A0ADDCEBF
:104DC000842B822BFACF282B809103028227F5CFE8
:104DD000802F8F70D82EBB2021F00E94510A812F86
:104DE00004CF812F0E94DA178D2D0E942D0AC5CE87
:104DF000123F89F160F4103FB9F0113F81F0BB2000
:104E000009F480C0C11076CE802F8F7128C0133F67
:104E100049F1143FA1F78091D80682FD2FC0802F61
:104E20008F71BB2011F31BC080910106BB2079F06C
:104E3000C81608F0A2CE202F2F7181E090E001C0AB
:104E4000880F2A95EAF7909103028927B6CF8C152F
:104E500008F493CEF0CF802F8F71B110C6CF0E948F
:104E6000510A8BCE80E0BB2009F4A7CF81E0902FC0
:104E70009F7101C0880F9A95EAF79FCF8091FB053B
:104E8000823040F1BB20D1F09091CE0197709430E8
:104E900041F40E946209802F8F710E942D0AA12C7B
:104EA0006CCEC816E0F7902F9F71D92E892F0E94E3
:104EB000510A63E08D2D0E94F111F1CFC81630F038
:104EC0000E94620964E0802F8F71F5CF81E00E941B
:104ED0003A0AE5CFBB2059F0A02FAF71DA2E8A2F06
:104EE0000E94510A63E08D2D0E94F11146CE81E0AF
:104EF0000E943A0AB1E0BC1508F03FCE82E00E9461
:104F00003A0A3BCEC110CBCE802F8F716ECFBB2023
:104F100019F0C1103FCE42CEC1103CCE20E0D701E7
:104F20004C9111965C91119712966C911297139671
:104F30007C91139714968C91149715969C910E94CE
:104F40008E0C8091FC0583FF25CE8091B701909156
:104F5000B801029709F01ECE812F0E94F4181ACED4
:104F6000552029F0DC0118968C9185FF86C9C8016F
:104F700097558F3F910511F008F071C0F7018581B9
:104F8000F801FF2754E0EE0FFF1F5A95E1F79F014C
:104F90002B5C3D4F6901E65CFD4F908180FB90F9F1
:104FA0009083882309F470C90E940C119093090220
:104FB00080930802D60112968C9112978F5F1296F9
:104FC0008C93129780913F079091BE05892B139681
:104FD0008C9313978091F90114968C9314971696DD
:104FE0004D915C9117971E966D917C91C6010E9420
:104FF000BD05F601858181FF44C990E080E0909372
:10500000CF068093D0062BC08091B2019091B3015E
:105010000817190781F41092B3011092B20110928F
:10502000C1061092C2061092C3061092C4061092D6
:10503000C9061092C8068091CA069091CB060097C7
:1050400009F495CFA8E08A16910408F00BC9642DE5
:105050000E941406811103C081E00E941218D7013A
:1050600015968C91882309F43EC90433BCE71B07CD
:1050700009F4D5C908F027C90233FCE71F0709F472
:105080002FC903332CE7120709F02DC981E029C984
:10509000A114B10409F09FC8512CB12CA12C80E0BF
:1050A0000E941218D092CB06C092CA0681E080936B
:1050B000C706D60115968C918093C50651100EC077
:1050C000AB2861F0F601808191819C012450310967
:1050D000213A310508F0A6C80E940705D6011696A8
:1050E000AD90BC90C5019A9581159F4110F4E0EEFA
:1050F000BE2277247394C50101978F339E4708F031
:10510000712CD6011996ED91FC911A97309731F0D8
:105110001B966D917C9181E009957822772079F03A
:10512000F601868197810E947B0A8093C606C5019D
:10513000F8E08F16910408F078C80E94C3050E9419
:105140005F127AC8B0E0A0E0E8EAF8E20C94F23529
:105150008091C801807F09F054C08091C7018823E5
:1051600009F44FC0E0913E0789E0D82E8091F50602
:105170008E1709F446C00E2F10E0ED9DF0011124AA
:10518000EA50F94F8481882309F440C0D09EE001A1
:10519000D19ED00D1124FE01EA50F94F91818091EA
:1051A000C301981333C090818091C20198132EC01F
:1051B000858181112BC0E280F3808091C4019091A0
:1051C000C501E81AF90A60E082EC91E00E94B30C94
:1051D00062EC71E00E94170DE816F906B8F48091B0
:1051E000C8018F7080618093C801C450D94F8881F5
:1051F0008F708061888382EC91E00E94F01E0E9493
:105200007309CDB7DEB7E7E00C940E36F80131969E
:10521000E770ACCFA8E1B0E0E0E1F9E20C94EA3548
:105220008C0186E0F801DE01539601900D928A957B
:10523000E1F7D80114967C9014971596EC9082ECC7
:10524000A82E81E0B82E8091C60181112AC071106C
:1052500003C0FF24F3941CC0EE20F9F0C8010E94A3
:105260007A0CF82E8823C9F089E0F801A2ECB1E0AD
:1052700001900D928A95E1F78091C601813031F459
:105280008091C2019091C3010E946D0C0E94A228DE
:105290008F2D6896EFE00C940636C8010E94F01E30
:1052A000D8CFF80150806180C280D38060E082EC6A
:1052B00091E00E94B30CF090C7018091C4019091DD
:1052C000C5014601881A990A60E082EC91E0FF204E
:1052D00009F428C10E94B30C62EC71E00E94170D22
:1052E0008816990608F0D1C0772009F4B2CF8091D2
:1052F000C801382F307F2091C301D80111969C91AD
:105300001197311171C029131FC02091C2019C91C6
:1053100029131AC04091C9015091CA0117962D91C5
:105320003C914217530781F4E11054C08F708061A3
:105330008093C80182EC91E00E94F01E8091C80128
:10534000F8018683F12CA4CFE11044C0662D852D91
:105350000E946D03E82E882381F08091FC0580FF78
:10536000F1CF82EC91E00E94F01E89E0E2ECF1E0E6
:10537000DF011D928A95E9F7E5CF5B8A6C8A8B89FC
:105380009C890E946D0C292F22952F70243058F48F
:105390009F70223088F0992399F0F8019681907FD0
:1053A00079F4FE2C75CF2A5F2F70223068F0C80187
:1053B0000E94F01EEF2CF5CF992311F0882389F37A
:1053C000805E883070F3F3CF803F58F3815F833085
:1053D00070F7E7CF8091C80181608093C801809108
:1053E000FC0581FDAFCFBDCF291320C02091C201A4
:1053F0009C9129131BC04091C9015091CA01179675
:105400002D913C9118974217530781F4E1100EC07B
:1054100016968C93C8010E94F01E89E0F801A2EC58
:10542000B1E001900D928A95E1F732CFC8010E9458
:105430007A0C882309F431CFEE2009F42ECF809125
:10544000C8018032B8F02091C2013091C3013B877E
:105450002A87DD86CC869091C6019E871F86888B21
:105460008091C9019091CA019A8B898BCE010A96CD
:105470000E94F01E89E0F801A2ECB1E001900D92CB
:105480008A95E1F70E94A228E4CE8091C801982F66
:10549000907F09F466CF772009F4DBCE2091C30119
:1054A000F801918129131AC02091C201908129131A
:1054B00015C04091C9015091CA012781308542171A
:1054C000530761F4E1100AC08683C8010E94F01EF0
:1054D00089E0D5011D928A95E9F7DACEC8010E94CC
:1054E0007A0C882309F4D9CEEE2009F4D6CE809127
:1054F000C801803208F4BECF2091C2013091C301AF
:105500003A832983DC82CB829091C6019D831E82DF
:105510008F838091C9019091CA0199878887CE01B4
:105520000196A6CF0E94B30C62EC71E00E94170DA9
:105530008816990608F04AC0772009F48ACEFE2C16
:10554000EE2009F4AACE9091C301F801818198134D
:105550002FC09091C201808198132AC02091C90167
:105560003091CA01878190852817390709F5809104
:10557000C4019091C501C81AD90AF8ECCF16D1041C
:1055800008F04BCF9091C80190FD47CF907F09F470
:1055900044CF8091C801D80116968C931697903FFE
:1055A00009F438CF982F907F905F8F70892B30CF80
:1055B000C8010E947A0C81115DCF8091C801816081
:1055C0008093C801C8010E94F01E62CE89E0F501F7
:1055D00011928A95E9F75CCEA2E1B0E0E2EFFAE23F
:1055E0000C94F5350A871B872C873D874E875F878C
:1055F000688B798B8A8BCE010A960E940A298111C9
:105600000CC089E0FE013A96DE01119601900D92E0
:105610008A95E1F78E8581110BC019E080913E07D4
:105620009091F506891331C06296E4E00C9411362E
:105630002091F50630E0C9010196877099274091C5
:105640003E074817190699F099E0929FD001939F61
:10565000B00D1124AA50B94FFE01319601900D9260
:105660009A95E1F78093F5060E947309D6CF0E94C0
:1056700010131092F50610923E0789E0E2ECF1E07B
:10568000DF011D928A95E9F7C8CF819FC0011124DF
:105690008A50994F0E940A29882331F280913E074F
:1056A00090E001968770992780933E07B7CFEF92DD
:1056B000FF920F931F93CF93DF938091420688232D
:1056C00061F0E09109068DE0F82E80914206E8171E
:1056D00048F01092420610920906CDB7DEB7E6E018
:1056E0000C940F36EE24E394EE0EE0920906CE2FD2
:1056F000D0E0EF9DF0011124ED5BF94F8481882308
:10570000E9F087819085892B21F481859285019626
:1057100059F4008111812281338144815581668150
:10572000778180850E94EC2AFC9EF001FD9EF00DA1
:105730001124ED5BF94F148210923F07EE2DC5CF77
:105740001092B6061092B506109215018091B4061B
:105750008093B3060E9462060E94572B0895B0E022
:10576000A0E0E5EBFBE20C94E835C091B30697E0CE
:10577000992E01E010E02DE0322E34E0432E552426
:1057800053948091B4068C1309C00E94572B0E9439
:105790006206CDB7DEB7E1E10C940436D0E0FE013D
:1057A000EE0FFF1FE555F94F80819181989ED00142
:1057B000999EB00D1124A65FB94F14962C911497A1
:1057C000211159C060904206E3E4F6E030E020E0A9
:1057D000812C5D01261508F04CC0E384F484D501CA
:1057E000CD90DC906FEF7FEF712C472D50E0DA0108
:1057F000AA0FBB1FAC0DBD1D0D90BC91A02D109725
:1058000031F0EA16FB0609F4BA017394EECF6F3F4C
:105810007607A9F1D80102C0AA0FBB1F6A95E2F76B
:105820008A2AB801072C02C0660F771F0A94E2F794
:10583000AB01415051098416150601F5329EF00165
:10584000339EF00D1124ED5BF94F989ED001999E87
:10585000B00D1124A65FB94F12962D913C9113976C
:105860003087278344821082118292878187159620
:105870005C920E9434062196C37083CF14822F5FFE
:105880003F4F3D96A7CFA6E0B0E0E9E4FCE20C94E0
:10589000F5350E940C118C018091FA019091FB0169
:1058A0008017910781F019821A820E940C11682FCB
:1058B00049815A81792F80E090E00E94771B1093F4
:1058C000FB010093FA012696E4E00C9411361F9236
:1058D0001FB61F9211248F939F93AF93BF93809114
:1058E000D906811113C08091DA069091DB06A09150
:1058F000DC06B091DD064196A11DB11D8093DA064C
:105900009093DB06A093DC06B093DD06BF91AF91C8
:105910009F918F911F901FBE1F901895CDB7DEB736
:10592000C155D1090FB6F894DEBF0FBECDBF85B704
:10593000806885BF85B7806885BF84B7877F84BF4F
:105940000FB6F894A89580916000886180936000FC
:10595000109260000FBE80E890E00FB6F89480933C
:105960006100909361000FBE8BE197E090938901F5
:10597000809388010E94F6060E94C10D0E94350D99
:105980000E94DE0C0E948C030E942D048091E20094
:1059900084608093E20078948091EB068823A1F0E4
:1059A0001091E9001F709091EC00892F817090FD9B
:1059B00080E8182B1092E9008091E80083FD0E9496
:1059C00032131F701093E90082E084BD93E095BD0F
:1059D0009AEF97BD80936E000E94950B811102C0D3
:1059E0000E94281781E08093150225982D9A24980B
:1059F0002C9A8FE891E00197F1F700C00000209108
:105A0000150246E152E0FA018E2F841B821708F43A
:105A1000C1C083E30E941D0782E30E941D0786E345
:105A20000E941D070BE511E020E6E22E21E0F22E98
:105A3000D8018D918D018F3F11F00E941D07E01656
:105A4000F106B1F783E0ECE1F2E0DF01282F1D92CF
:105A50002A95E9F7EFEFF1E0DF011D928A95E9F76A
:105A600090E080E00E947D36863E9E4F21F40E94A9
:105A7000950B811168C066EE7EEF90E080E00E9499
:105A8000B13660E082E090E00E94933681E080933E
:105A9000020261E083E090E00E94933660E074E1EE
:105AA00084E090E00E94B13660E086E090E00E94E1
:105AB00093366FEF87E090E00E94933640E050E02D
:105AC000BA0188E090E00E94A53660E084E290E0B0
:105AD0000E94933660E087E190E00E94933660E098
